:100000000C94ED110C9409120C9409120C94091221
:100010000C9409120C9409120C9409120C940912F4
:100020000C9409120C9409120C9409120C940912E4
:100030000C9409120C9409120C9409120C940912D4
:100040000C9409120C9409120C9409120C940912C4
:100050000C9409120C9409120C9409120C940912B4
:100060000C9409120C940912361A511A541A4F1A88
:100070005C1A611A6D1A0000250028002B00000090
:10008000240027002A00FFD0FFE0FFCFFF64FFD14C
:10009000FF32380C060201FF64FFD0FFFE00474428
:1000A000E8EF1D000000002A3A0026F81D00121497
:1000B0003C15021100C00001C00001C00001C000D9
:1000C000C1C100F0C3C0F8CFC07CDF000FFC00034B
:1000D000E00003E0000FFC003CDF00F8CF80F0C33D
:1000E0008040C18001C00001C00001C0000180004B
:1000F00011113314010500C00001C00001C000014E
:10010000C00001C00001C00001C00001C000FFFF2D
:1001100080FFFF8001C00001C00001C00001C000DD
:1001200001C00001C000018000070D0D0B02F9089D
:100130003CFEFE1E1E1E1C1C383060400E020410C9
:10014000010B7FFCFFF80606060B03FF387CFCFC66
:10015000F870142E8A1701F80000300000F000003B
:10016000F00000E00001E00001C00001C00003C099
:10017000000380000780000780000700000F0000D8
:100180000F00000E00001E00001C00001C00003CC0
:100190000000380000780000780000700000F000D7
:1001A00000E00000E00001E00001C00003C0000327
:1001B000C0000380000780000780000700000F00D8
:1001C000000E00001E00001E00001C00003C00008D
:1001D0003C0000380000780000700000F00000C013
:1001E0000000131D5717020001F80007FC000E1E47
:1001F000001C0F001807803807803803C07003C048
:100200007003C07003E0F001E0F001E0F001E0F005
:1002100001E0F001E0F001E0F001E0F001E0F001C8
:10022000E0F001C07801C07803C07803803C03800F
:100230003C03001E07000F0E0007FC0003F0001136
:100240001D5717030000600001E0000FE0007FE091
:1002500000FFE00001E00001E00001E00001E0003B
:1002600001E00001E00001E00001E00001E0000128
:10027000E00001E00001E00001E00001E00001E039
:100280000001E00001E00001E00001E00001E00009
:1002900001E00003F0003FFE007FFF80111D5716B4
:1002A000020001F80007FE001C1F00380F00780F45
:1002B00080700780F00780E00780000780000780DB
:1002C000000F00000F00001E00001E00003C000098
:1002D000780000F00000F00001E00003C00007809B
:1002E000000F00000F00001E00803C00807800809E
:1002F000F00180FFFF80FFFF80121D5716010001F3
:10030000F80007FE001E1F003C0F0038078078072A
:1003100080700780000780000700000F00001E00AB
:10032000003C0000F80003FE00003F00000F8000CA
:1003300007800003C00003C00003C00003C0000327
:10034000C00003C0000780800780E00F00783E00F7
:100350003FFC0007E000131D5717010000030000D9
:100360000F00001F00003F00007F00007F0000EF33
:100370000000CF0001CF00038F00038F00070F00A4
:100380000E0F000E0F001C0F00180F00380F00702A
:100390000F00700F00FFFFE0FFFFC0000F00000F15
:1003A00000000F00000F00000F00000F00003F8052
:1003B00001FFE0121D571702000000800001801F9E
:1003C000FF001FFE001800001800001800001800B1
:1003D000003800003800003800003FF0003FFC000B
:1003E000783F00200F000007800007C00003C00016
:1003F00003C00003C00003C00003C0000380000767
:1004000080800780E00F00783E003FFC0007F0008E
:10041000121D57170300000700003F0000F80001FD
:10042000E00003C0000F00000E00001E00003C00B2
:100430000038000078000078F80077FE00FE1F000A
:10044000F80F80F00780F007C0F003C0F003C0F0A1
:1004500003C0F003C0F803C07803807803803C0732
:10046000803C07001F0E000FFC0003F000131B511F
:100470001702007FFFC07FFFE06001C04003C0C0E3
:100480000380000380000700000700000E00000E3C
:1004900000001C00001C000038000038000038007C
:1004A00000700000700000E00000E00001C00001EA
:1004B000C00003C0000780000780000F00000F008D
:1004C000001C0000121D5716020003F8000FFE006A
:1004D0001C1F00380F003007807007807007807085
:1004E0000780700700780F003E1E001FBC000FF051
:1004F0000003FC0007FE001E3F003C0F807807C091
:100500007007C0F003C0F003C0F003C0F003C0F0F8
:1005100003807807807C07003E0E001FFC0007E088
:1005200000131E5A1702FF01F80007FE000E1F00FD
:100530001C0F803807807803C07003C0F003E0F020
:1005400001E0F001E0F001E0F001E0F801E0780303
:10055000E07C07E03E0DE01FF9E007E1C00003C0CA
:100560000003C0000780000780000F00001E00008D
:100570003C0000780000F00003E0001F800038001D
:10058000000617170B03FF387CFCFCF87000000016
:100590000000000000000000387CFCFCF870003B0C
:1005A00039ECF21906D110A3207FF721F71FF700CD
:1005B0000000090000051E1E0B03FF3070F0707074
:1005C000707070707070707070707070707060604B
:1005D0006000000070F8F8F8700B0D1A110310702D
:1005E000E0F1E0F1E0F1E0F1E070E060C060C060F7
:1005F000C060C060C060C060C01117451302020037
:10060000C200018600018600018E00038C00030CED
:1006100000030C003FFF803FFF80061800063800F3
:100620000E30000C30000C3000FFFE00FFFE001802
:10063000600018E00030C00030C00030C00071C061
:1006400000618000101E3C1301FD018001800180CB
:1006500003E00FFC39FE319C7188718071807980D4
:100660003D803F801FE007F801FC01BE018F018F34
:100670000187C187C187E18EF18EFFFC3FF00FC07B
:100680000180018001801919641B01FF0F800600A1
:100690003FC01C0071E0380070E03800E07070006E
:1006A000E070E000E070E000E071C000E073800006
:1006B00070E7000078E700003FCE3C001F1CFE0002
:1006C000001DCF000039C7000073838000E38380E2
:1006D00000E3838001C3838003838380038383805B
:1006E0000701C7000E01C7001C00FE0018007800BB
:1006F000181C541B020000F80001FC00031E000738
:100700000E000E0E000E0E000E0E000E0C000E1C43
:10071000000F380007700007C0000783FF0F87FF36
:100720001DC1F239E0F070F070707070E07870E028
:100730003C70E01EE0E00FE0E007C0F003C078038B
:10074000F03C1EF81FFC7F07E038040D0D0A031073
:1007500070F0F0F0F0706060606060606009254AE1
:100760000D03FA0080038007000E000C001C001827
:1007700000380038007000700070007000E000E089
:1007800000E000E000E000E000E000E000E000E069
:1007900000E000E000700070007000700038003869
:1007A000001C001C000E0007000380008009254A81
:1007B0000D01FA8000E000700038001C001C000EE3
:1007C000000E000E000700070007000780038003EB
:1007D0008003800380038003800380038003800301
:1007E00080038007000700070007000E000E000CC2
:1007F000001C00180038007000E00080001010207D
:1008000012010E0180018001806184718E799F1F29
:10081000F807C003C01FF8799EF18E218601800180
:100820008001800F0E1C10010403800380038003ED
:100830008003800380FFFEFFFE03800380038003AC
:100840008003800380060A0A0902FA3CFC3C1C1C57
:1008500018183020400B02040D01097FE0FFE0056D
:1008600005050902FF70F8F8F8701126721301F9F6
:10087000000180000700000700000700000E0000D4
:100880000E00000E00001C00001C000038000038A4
:100890000000380000700000700000700000E000F0
:1008A00000E00001C00001C00001C000038000039F
:1008B00080000380000700000700000E00000E000B
:1008C000000E00001C00001C00001C00003800008E
:1008D000380000700000700000700000E00000C0F0
:1008E000000011184813010003E0000FF8001C3C41
:1008F00000381E00300E007007006007006007809F
:10090000E00380E00380E00380E00380E00380E018
:100910000380E00380E00380F003007007007007AD
:10092000007806003C0E001E1C000FF80007E000D7
:100930000E1830130300018007803F80FF80038082
:10094000038003800380038003800380038003808F
:10095000038003800380038003800380038003807F
:1009600003800FE07FFC0E183013020003E00FF845
:100970001878303C701C601CE01C001C001800380B
:100980000030007000E001C00180038007000E000D
:100990001C0018043004700CFFFCFFFC0F1830130F
:1009A000010003E00FF81C78383C701C701C001C20
:1009B00000180030006003E003F8003C001C000E4B
:1009C000000E000E000E000E001C401CF0783FF0E0
:1009D0000FC010183013010000180078007800F8DC
:1009E00001F801B80338073806380C381C381838B5
:1009F000303870386038FFFFFFFE003800380038AC
:100A000000380038007C03FF0F1830130100000489
:100A10001FFC1FF8180018001800300030003000CC
:100A20003FE03FF8307C401C001E000E000E000E20
:100A3000000E000E001C401CF0783FF00FC00F1895
:100A400030130200003800F003C007000E001C0045
:100A500038007000700063E0EFF8F83CF01CE01E16
:100A6000E00EE00EE00EE00E700E700C381C3C380C
:100A70001FF007C00F172E1302007FFEFFFEC00CF1
:100A8000C00C801C0018003800300070006000604E
:100A900000E000C001C001800380030007000700E0
:100AA0000E000E001C0038000F18301302000FC09B
:100AB0003FF07878703CF01CE01CE01CF0187830B7
:100AC0003E601FC007F01878303C701E600EE00ECC
:100AD000E00EE00EE00C701C7C383FF00FC00F19E8
:100AE000321302FF07C00FF03878303C701C601CD6
:100AF000E00EE00EE00EE00EF00E701E783E3FEECF
:100B00000F8C001C001C00180038007000E001C0B1
:100B100007801E0030000513130902FF78F8F8F86B
:100B20006000000000000000000070F8F8F8700697
:100B300018180902FA78F8F8F860000000000000C0
:100B40000000003CFC3C1C1C18183020400F0D1A03
:100B50001201050002001E00FE03F01FC07E00F01F
:100B600000FC003F8007E001FC003E000C0F081075
:100B70001201077FFEFFFE00000000000000007F62
:100B8000FEFFFE0F0D1A1201056000FC003F000F72
:100B9000E001FC007E001E007E03F01FC07E00F816
:100BA00000C0000E1E3C1102FF07E01FF0387870F5
:100BB00038E01CE01CE01CC01C001C0038003800A1
:100BC0007000F000E001C003800380070007000709
:100BD000000700070000000000000007000F800F62
:100BE000800F8007001E21842001F90007F8000013
:100BF0003FFE0000F01F8001C007C0030001E006B7
:100C00000000F00C000070180000783803C638307F
:100C10000FFC38701C3C3C70381C1C60701C1CE0C5
:100C2000601C1CE0E01C1CE0E01C1CE0E01C1CE064
:100C3000E01C1CE0E01C1CE0E01C18F0F01C38700C
:100C4000701C3070783C60783C5EE0381F8F803CD0
:100C50000F0F001E0000001F0000000F8000200783
:100C6000C000C001F80F8000FFFE00001FF0001759
:100C7000194B180000000800003800003C00003C40
:100C800000006C00006E00006E0000C60000C7008F
:100C900000C700018300018380018380030180037A
:100CA000FFC003FFC00600E00600E00600E00C0005
:100CB000700C00700C00701800381C0078FF01FEEA
:100CC00013194B1601001FF000FFFE001C1F001C33
:100CD00007801C03801C03801C03801C03801C07EE
:100CE000001C06001C1C001FFE001FFF001C0F80C4
:100CF0001C03C01C01E01C00E01C00E01C00E01C08
:100D000000E01C01E01C01C01C07803FFF00FFFC4D
:100D10000013194B15010000FE0003FFC00707C0B8
:100D20000C01801800003800007000007000007096
:100D30000000E00000E00000E00000E00000E00053
:100D400000E00000E00000E0000070000070000023
:100D50007800003C00401E01E00F878007FE000184
:100D6000F80015194B1801001FF800FFFF001C0FB9
:100D7000801C03C01C01E01C00F01C00701C0070F3
:100D80001C00781C00381C00381C00381C00381C63
:100D900000381C00381C00381C00701C00701C003F
:100DA000701C00E01C01E01C03C01C0F803FFE0013
:100DB000FFF80012194B140100FFFF003FFF001C59
:100DC00003001C01001C01001C00001C00001C0092
:100DD000001C00001C00001FFC001FFC001C080081
:100DE0001C00001C00001C00001C00001C00001C5B
:100DF00000001C00001C00401C00C01C01803FFFC4
:100E000080FFFF8011194B130100FFFF803FFF801F
:100E10001C03001C01001C01001C00001C00001C25
:100E200000001C00001C00001FFC001FF8001C1824
:100E3000001C00001C00001C00001C00001C000026
:100E40001C00001C00001C00001C00001C00003ED8
:100E50000000FF800015194B170100007F0001FF03
:100E6000C00703E00E00C01C000038000030000086
:100E7000700000700000E00000E00000E00000E012
:100E80000000E00FF8E001E0E000E0E000E07000CA
:100E9000E07000E07800E03C00E01E00E00F81C060
:100EA00007FF8001FC0018194B1A0100FF81FF3E6B
:100EB000007C1C00381C00381C00381C00381C004A
:100EC000381C00381C00381C00381C00381FFFF884
:100ED0001FFFF81C00381C00381C00381C00381C90
:100EE00000381C00381C00381C00381C00381C005E
:100EF000383E007CFF81FF0919320C0100FF803E63
:100F0000001C001C001C001C001C001C001C001C01
:100F1000001C001C001C001C001C001C001C001CF1
:100F2000001C001C001C001C001C003E00FF800F69
:100F300020400CFCF907FE00F80070007000700003
:100F40007000700070007000700070007000700021
:100F50007000700070007000700070007000700011
:100F6000700070007000700060006000E000C03130
:100F7000807F00FC0016194B170100FF87F83E0127
:100F8000C01C03801C07001C0E001C0C001C180059
:100F90001C38001C70001CE0001DC0001F80001FDA
:100FA000C0001DE0001CE0001C70001C38001C3C50
:100FB000001C1E001C0F001C07801C03C01C03E04B
:100FC0003E01FCFF80F012194B130100FF80003E30
:100FD00000001C00001C00001C00001C00001C0085
:100FE000001C00001C00001C00001C00001C000075
:100FF0001C00001C00001C00001C00001C00001C49
:1010000000001C00001C00001C00C01C00801E0111
:10101000803FFF80FFFF801E1964200100FE000159
:10102000F81E0003E01F0003E01F0003E01F00079D
:10103000E01B8006E01B800EE019C00CE019C00C1C
:10104000E018E01CE018E018E018E038E018703014
:10105000E0187070E0183860E0183860E0181CE0A4
:10106000E0181CC0E0181FC0E0180F80E0180F80C7
:10107000E0180780E0180700E03C0701E0FF0207E6
:10108000FC18194B1A0100F801FF3C007C1E0038C7
:101090001E00381F00381F80381D80381DC0381CC6
:1010A000E0381C60381C70381C38381C1C381C1C7C
:1010B000381C0E381C07381C07381C03B81C03F8F2
:1010C0001C01F81C00F81C00F81C00783E0038FFDA
:1010D000801815194B18010000FC0003FF000707DA
:1010E000800C03C01801E03800E0700070700070E0
:1010F000600078E00038E00038E00038E00038E0D8
:101100000038E00038E00038F00030700070700007
:10111000607800E03C00C01E01800F070007FE0061
:1011200001F80012194B1501001FF800FFFE001C0A
:101130001F001C07801C03C01C01C01C01C01C0137
:10114000C01C01C01C01C01C03801C07801C0F00B8
:101150001DFE001CF8001C00001C00001C00001CF0
:1011600000001C00001C00001C00001C00003E00D1
:1011700000FF8000181F5D1801FA00FC0003FF004B
:101180000707800C03C01801E03800E070007070A1
:101190000070600078E00038E00038E00038E000DF
:1011A00038E00038E00038E00038F00030700070BF
:1011B0007000703800E03C00C01E01C00F078007BF
:1011C000FE0001FC00000E00000700000382000189
:1011D000E30000FE00003C15194B1601001FF00053
:1011E000FFFE001C1F001C07001C07801C03801C46
:1011F00003801C03801C03801C07001C06001C1CB1
:10120000001FF0001C70001C38001C38001C1C0063
:101210001C1E001C0E001C07001C07801C03801CE9
:1012200003C03E01F8FF81F00F193213020007E0FE
:101230001FF8787C7018E000E000E000F000F80093
:101240007E003F801FE007F801FC007C001E001EAE
:10125000000E800E800EC01CE01CF078FFF01F8096
:1012600015194B1600007FFFF8FFFFF8C07018C07B
:101270007018807010007000007000007000007026
:10128000000070000070000070000070000070002E
:10129000007000007000007000007000007000001E
:1012A000700000700000700000700000F80003FE85
:1012B0000018194B1A0100FF81FF3E007C1C00380A
:1012C0001C00381C00381C00381C00381C00381C5E
:1012D00000381C00381C00381C00381C00381C006A
:1012E000381C00381C00381C00381C00381C0070EA
:1012F0000E00700E00700F00E007C1C003FF8000F9
:101300007E001919641A0000FF807F801C000E0007
:101310001E000C000E001C000E0018000F0018002C
:1013200007003800070030000380300003807000A1
:1013300003C0600001C0E00001C0E00001E0C000A7
:1013400000E1C00000E180000071800000738000B7
:10135000007B0000003B0000003F0000003E00005A
:10136000001E0000001E00000008000021197D2260
:101370000000FF80C07F801C00C00E001C00C00C5D
:10138000001C01E00C000E01E01C000E01E01C003E
:101390000E03F018000E0370180007033018000742
:1013A0000738380007063838000706183000070EDF
:1013B0001C3000038C1C3000038C0E7000039C0E4C
:1013C000600003980E600001D807600001F8076014
:1013D0000001F007E00001F003C00001F003C000CD
:1013E00000E003C00000E001C00000C00180001761
:1013F000194B190100FF87FC3C00F01C00E01E01A6
:10140000C00F018007038007870003C60001EE00BC
:1014100000FC0000FC00007800007800007C000068
:10142000FE0001CE0001CF00038780030380070385
:10143000C00E01E00C00E01C00F03C00F8FF03FED1
:1014400017194B180000F801FE3C00781E00600ED2
:1014500000E00700C00781C003818003C38001C38F
:101460000000E70000EE00007E00007C0000380075
:101470000038000038000038000038000038000054
:101480003800003800003800003800007C0001FF00
:101490000012194B1501003FFFC03FFFC030038011
:1014A000200780600F00600E00001E00001C00007E
:1014B000380000780000700000F00001E00001C07A
:1014C0000003C0000380000700000F00000E0000B2
:1014D0001E00403C00403800C07800C07FFFC0FFC5
:1014E000FFC009254A0C03FAFF80FF80E000E000FE
:1014F000E000E000E000E000E000E000E000E000EC
:10150000E000E000E000E000E000E000E000E000DB
:10151000E000E000E000E000E000E000E000E000CB
:10152000E000E000E000E000E000E000E000FF801C
:10153000FF801126721301F9C00000E00000700066
:101540000070000030000038000038000018000073
:101550001C00001C00000E00000E0000060000072A
:10156000000007000003000003800003800001C0AA
:101570000001C00000C00000E00000E000006000CA
:1015800000700000700000380000380000180000F3
:101590001C00001C00000C00000E00000E000007E4
:1015A0000000070000030000018009254A0D01FA30
:1015B000FF80FF800380038003800380038003801B
:1015C0000380038003800380038003800380038003
:1015D00003800380038003800380038003800380F3
:1015E00003800380038003800380038003800380E3
:1015F000038003800380FF80FF8010132614020BFA
:101600000080038003C003C007E006E00EE00C701A
:101610000C701C7818381838301C301C701C600E88
:10162000600EE00780061102061301FB7FFF80FFBA
:10163000FF000809090D0114E0F07038381C0E068F
:101640000310122412020003E01FF038787038F003
:1016500038C0380038007807F81C3870386038E037
:1016600038E038E078F1B97F3F3C18121E5A140078
:10167000000C00007C0000BC00001C00001C0000EE
:101680001C00001C00001C00001C00001C00001CB2
:1016900000001C00001C3C001CFF001D8F001F07E9
:1016A000801E03801C03C01C01C01C01C01C01C0A3
:1016B0001C01C01C01C01C01801C01801C03801E79
:1016C00003001F860007FC0001F0000F1224110226
:1016D0000001F807FE1C1C380C70047000E000E0EC
:1016E00000E000E000E000E000F000700478063E5A
:1016F0001C1FF807E0131E5A150200000300003FEC
:1017000000000F00000700000700000700000700AE
:1017100000070000070000070000070000070003A3
:10172000F7000FFF001C1F00380F00300700700784
:1017300000600700E00700E00700E00700E00700A6
:10174000E00700F00700700F00781F003C37E01F33
:10175000E7C00783000E122412020003C00FF01C22
:10176000783038701C601CE01CFFFCFFF8E000E0E3
:1017700000E000F0007004780C3C381FF007C00F48
:101780001E3C0C0100007801FE031C06080E000C34
:10179000000C001C001C001C001C001C007FF0FF43
:1017A000E01C401C001C001C001C001C001C001C39
:1017B000001C001C001C001C001C001C003E00FF44
:1017C000C0121B511301F703E0C00FFFC01C3F0004
:1017D000381C00700E00700E00700E00700E007845
:1017E0001C003C38001FF00007C0000600000C0081
:1017F000001C00001FE0000FFE000C3F801803C01B
:101800007001C0E001C0E001C0E00380F003807C13
:101810000F003FFC0007F000151E5A1601000C00D7
:1018200000FC00007C00001C00001C00001C0000EC
:101830001C00001C00001C00001C00001C00001C00
:1018400000001C1F001C3F801CE3C01D81C01F0145
:10185000C01E01C01E01C01C01C01C01C01C01C073
:101860001C01C01C01C01C01C01C01C01C01C01C0B
:1018700001C03E03C0FF8FF8091B360B01001C009E
:101880003C003C003C00180000000000000000008C
:101890000C00FC003C001C001C001C001C001C0078
:1018A0001C001C001C001C001C001C001C001C0058
:1018B0003C00FF800B24480AFCF700E001E001E057
:1018C00001E000C00000000000000000006007E030
:1018D00001E000E000E000E000E000E000E000E007
:1018E00000E000E000E000E000E000E000E000E0F8
:1018F00000E000E000C000C001C001802300FE0045
:10190000F800131E5A1401000C0000FC00003C00FB
:10191000001C00001C00001C00001C00001C00003B
:101920001C00001C00001C00001C00001C1FE01C10
:1019300007001C0E001C1C001C30001CE0001DC019
:10194000001F80001DC0001DE0001CF0001C78007E
:101950001C38001C1C001C1E001C0F003C0780FFD4
:1019600003E0091E3C0B01000C00FC007C001C0085
:101970001C001C001C001C001C001C001C001C0087
:101980001C001C001C001C001C001C001C001C0077
:101990001C001C001C001C001C001C001C001C0067
:1019A0003C00FF801F12482001000C1E03C0FC7F7A
:1019B0000FE03CC798F01D83B0701F03E0701E035A
:1019C000C0701C0380701C0380701C0380701C039B
:1019D00080701C0380701C0380701C0380701C03CB
:1019E00080701C0380701C0380703C07C0F0FF9F58
:1019F000F3FE1512361601000C0F00FC3F803C630D
:101A0000C01D81C01D01C01E01C01E01C01C01C03F
:101A10001C01C01C01C01C01C01C01C01C01C01C59
:101A200001C01C01C01C01C03E03C0FF8FF8101292
:101A30002414020003E00FF81C3C301E700E600FEF
:101A4000E007E007E007E007E007E007F006700EB8
:101A5000780C3E381FF007C0121B511501F70C1C03
:101A600000FC7F003C8F801D07801E03801E03C08A
:101A70001C01C01C01C01C01C01C01C01C01C01CF9
:101A800001801C01801C03801E03001F06001DFC3A
:101A9000001C78001C00001C00001C00001C000042
:101AA0001C00001C00001C00003E0000FF80001312
:101AB0001B511502F701F18007FB001C1F00380FB6
:101AC00000300700700700600700E00700E0070033
:101AD000E00700E00700E00700F00700700F007863
:101AE0001F003C37001FE7000787000007000007C2
:101AF00000000700000700000700000700000700C3
:101B0000000700003FE00E12241001000C3CFCFC1A
:101B10003D8C1D0C1F041E001E001C001C001C0020
:101B20001C001C001C001C001C001C001E00FF8070
:101B30000B12240F02001F007F8073C0E180E08041
:101B4000F000F8007E001F000FC003E001E080E01D
:101B500080E0C0E0E1C0FF803E000D19320E0000C1
:101B600004000C001C001C001C001C001C007FF862
:101B7000FFF01C201C001C001C001C001C001C0092
:101B80001C001C001C001C001C001C001E380FF058
:101B900007801512361500000C00C0FC0FC01C0198
:101BA000C01C01C01C01C01C01C01C01C01C01C024
:101BB0001C01C01C01C01C01C01C01C01C01C01CB8
:101BC00003C01C07C01E1DC80FF1F007C0C01312D0
:101BD00036140000FF07E03C01C01C01801C03809C
:101BE0000E03000E03000E060007060007060003A2
:101BF0008C00038C00039C0001D80001D80000F089
:101C00000000F00000F0000040001C12481C000022
:101C1000FF0307F03C0700C01C0700C01C078180C1
:101C20001C0F81800E0F81800E0DC3800E19C30022
:101C30000619C3000718E3000730E60003307600FA
:101C400003B0760003E07C0001E03C0001E03C00D2
:101C500001C03C00018010001412361400007F8F78
:101C6000E01E03800E0300070600078C00039C00A3
:101C700001D80000F00000F00000F00001B8000101
:101C80009C00031E00060E000E07000C03803C03A0
:101C9000C0FF0FF0141B5114FFF77F83F01E00E00C
:101CA0000E00C00E00C0070180070180070300037B
:101CB000830003830001C60001C60001C60000ECDA
:101CC0000000EC0000780000780000780000300090
:101CD00000300000600000600000E00001C0004330
:101CE00080007F0000FE00007C00000F1224120123
:101CF000003FFE3FFE601C60384038007000E0018D
:101D0000C001C00380070007000E001C0238023823
:101D1000067FFEFFFE0B254A0E02FA004001E0039B
:101D200080070006000E000E000E000E000E000FD1
:101D300000070007000700070007000E001C007CDA
:101D400000FE000F00070007000700070007000F54
:101D5000000E000E000E000E000E000E0007000325
:101D60000001C000400329290903F860E0E0E0E039
:101D7000E0E0E0E0E0E0E0E0E0E0E0E0E0E0E0E063
:101D8000E0E0E0E0E0E0E0E0E0E0E0E0E0E0E0E053
:101D9000E0E0E0C00B254A0E01FA40007000380078
:101DA0001C000C000E000E000E000E000E001E00A7
:101DB0001C001C001C001C001C000E000FC003E0D7
:101DC00007000E000C001C001C001C001C001E0064
:101DD0000E000E000E000E000E000C001C0038005D
:101DE0007000C0001206121401090F00C01FC0804D
:101DF0003FE10063FF00C0FE00803800FF010406E1
:101E000000FF05010301FA20FFFF05FF05FF0700A2
:101E1000401215458080800080053242A0A0024516
:101E200045A0F0A0F0A001364640E0C020E040020E
:101E30003545802040802002454540A040A05015F7
:101E400012428080112646408080808040012646D4
:101E5000804040404080023545A040E040A002352F
:101E6000454040E040400122424080043141E012C0
:101E7000114180023545202040808002354540A038
:101E8000E0A04002354540C04040E002354540A05A
:101E90002040E0023545E0204020C0023545A0A0AA
:101EA000E02020023545E080C020C002354560803A
:101EB000C0A040023545E02040808002354560A04A
:101EC00040A0C002354540A06020C01214448000EC
:101ED00000800125454000004080023545204080BB
:101EE0004020033343E000E002354580402040803D
:101EF000023545C02040004002354560A0A080600A
:101F000002354540A0E0A0A0023545C0A0C0A0C059
:101F100002354540A080A040023545C0A0A0A0C029
:101F2000023545E080C080E0023545E080C0808019
:101F30000235456080A0A060023545A0A0E0A0A0C9
:101F4000023545E0404040E0023545202020A040D9
:101F5000023545A0A0C0A0A002354580808080E069
:101F6000023545A0E0E0A0A002354520A0E0A08019
:101F700002354540A0A0A040023545C0A0C08080E9
:101F800001364640A0A0A04020023545C0A0C0A018
:101F9000A002354560804020C0023545E040404009
:101FA00040023545A0A0A0A0E0023545A0A0A0E0D9
:101FB00040023545A0A0E0E0A0023545A0A040A029
:101FC000A0023545A0A0404040023545E0204080B9
:101FD000E0122545C0808080C002354580804020C9
:101FE00020022545C0404040C005324240A001319A
:101FF00041E0152242804002344460A0A0600235D6
:102000004580C0A0A0C00234446080806002354595
:102010002060A0A06002344440A0C060023545208A
:1020200040E0404001354560A06020C00235458059
:10203000C0A0A0A00235454000C040E001364620C7
:1020400000202020C002354580A0C0A0A002354558
:10205000C0404040E0023444A0E0A0A0023444C0AC
:10206000A0A0A002344440A0A040013545C0A0C0BB
:10207000808001354560A0A06020023444A0C0806B
:102080008002344460C020C002354540E04040201A
:10209000023444A0A0A060023444A0A0A0400234B6
:1020A00044A0A0E0A0023444A04040A0013545A0D7
:1020B000A06020C0023444E02040E00136462040C9
:1020C000C0404020121545808080808001364680C7
:1020D000406040408005424250A0FFFFFFFFFFFFED
:1020E000FFFFFFFFFFFFFFFFFFFFFFFFFFFFFFFF00
:1020F000FFFFFFFFFFFFFFFFFFFFFF07004012157D
:1021000045800080808002354540E080E040023517
:102110004520406040A002444490606090023545F4
:10212000A040E04040121545808000808001364686
:1021300060C0A06020C0063141A00146466090D03A
:10214000D0906002354560A06000E003434350A09A
:1021500050033242E020043141E003444460F0D0B7
:1021600060063141E004334340A04002354540E081
:102170004000E0032444C04080C0022545C04080A8
:1021800040801522424080013545A0A0A0C08002B9
:10219000454570D0D05050141141801222424080E9
:1021A00003244440C0404002354540A04000E003C5
:1021B0004343A050A00146468080805070100146E5
:1021C000468080B0102030014646C0408050B0109C
:1021D00002354540004080600235458040A0E0A0C7
:1021E0000235452040A0E0A0023545C040A0E0A057
:1021F00002354560C0A0E0A0023545A040A0E0A0A7
:102200000235454040A0E0A002454570A0F0A0B0D6
:1022100001364640A080A0408002354580E0C08065
:10222000E002354520E0C080E002354560E0C08036
:10223000E0023545A0E0C080E002354580E0404046
:10224000E002354520E04040E002354540E04040B6
:10225000E0023545A0404040E0024545E050D05006
:10226000E002454550A0E0E0A00235458040A0A036
:10227000400235452040A0A0400235454040A0A086
:102280004002454570E0A0A040023545A040A0A016
:1022900040033343A040A002354560A0E0A0C00247
:1022A00035458040A0A0E00235452040A0A0E002D6
:1022B00035454000A0A0E0023545A000A0A0E00206
:1022C00035452000A0404002354580C0A0C08001B7
:1022D000364640A0C0A0E080023545804060A06046
:1022E000023545204060A060023545600060A06076
:1022F00002454550A060A060023545A00060A06086
:10230000023545400060A06002444470B0A07001F6
:10231000354540A08060400235458040A0C0600245
:1023200035452040A0C060023545C040A0C06002D5
:102330003545A040A0C06002354580404040E002E5
:10234000354520C04040E002354540A04040E00215
:102350003545A000C040E0023545A04060A04002E5
:10236000454550A0C0A0A0023545804040A0400295
:102370003545204040A040023545400040A0400285
:102380003545E00040A040023545A00040A0400295
:1023900035454000E0004002344460A0A0C0023552
:1023A000458040A0A0600235452040A0A0600235D5
:1023B000454000A0A060023545A000A0A060013605
:1023C000462040A0E020C00136468080C0A0C080EA
:1023D000013646A000A0E020C00011241FBECFEFB0
:1023E000D4E0DEBFCDBF11E0A0E0B1E0E6ECF5E364
:1023F00002C005900D92AE33B107D9F722E0AEE3EB
:10240000B1E001C01D92A633B207E1F7E0D00C9411
:10241000E11A0C9400000F9364E082E0FBD00FEF10
:102420002FEF482F60E071E08EEF91E036D50F91ED
:102430000895E1E6F0E080E8808310820895A0E04E
:10244000B0E0E5E2F2E10C94A51AC091FE01C2955C
:10245000C695C770D091FF01D695D695D6957C2E9E
:10246000770C770C770CA12C10E0B12CE12CF12C1F
:10247000C701880F991F880F991F812E882A6B2CFE
:102480006A0C912CC12CD12CC60135E0880F991F04
:102490003A95E1F7682D682B8EEF91E045D50D2F29
:1024A0002C2F492D662D8EEF91E0E1D68FEFC81AC3
:1024B000D80A9D0E88E0C816D10431F78FEFE81ACC
:1024C000F80ABC0E88E0E816F10491F61F5FA70C2D
:1024D000143059F6CDB7DEB7EEE00C94C11ACF93A5
:1024E000DF93C82F6EE975E08EEF91E0CBD3DEE18C
:1024F000DC0F2EE031E04D2F6C2F8EEF91E007D3F3
:102500006DE970E08EEF91E0BDD34AE04C0F67E1DA
:102510006C0F20E131E08EEF91E02FD36EE975E092
:102520008EEF91E0AFD365E36C0F22E131E04D2FE8
:102530008EEF91E0ECD243E24C0F62E06C0F2FE2A1
:102540008EEF91E04ED640E24C0F6DE26C0F2CE026
:102550008EEF91E05DD6DF91CF9108956DEF7DE133
:102560008EEF91E08FD38091FF018B3360F424E1F3
:1025700031E049E065E38EEF91E0C9D223E331E039
:1025800042E16DE404C024E231E046E361E08EEF15
:1025900091E0BDC280910902883209F450DF61E008
:1025A0008EEF91E0C1D4809109028F71823060F08A
:1025B00082E095DF62E08EEF91E0B6D481E08FDFBC
:1025C00063E08EEF91E0B0D480E089DFC7CF31DFE8
:1025D00022DF8EEF91E084D4DDDF8EEF91E084D4B2
:1025E0008111FACF8AE090E06BD0F3CFA2E0B0E0A7
:1025F000EBEFF2E1B6C7860F911D860F911D42E009
:1026000050E0BC01CE010196D3D789819A812296F0
:10261000E2E0C3C798E0899F600D1124862F0895DA
:10262000CF93C82F682F6695669566958EE790E0E4
:10263000DDDFFC014081C77021E030E001C0220FE6
:10264000CA95EAF7242B2083CF910895CF93DF9387
:10265000C82FD62F682F66956695669586E790E019
:10266000C5DFFC01C7708FB7D1110BC0F894908102
:1026700021E030E001C0220FCA95EAF72095292316
:1026800009C0F894908121E030E001C0220FCA9582
:10269000EAF7292B20838FBFDF91CF910895860F12
:1026A000911DFC0183A18F3F09F0BACF0895860FD9
:1026B000911DFC0183A18F3F11F0642FC7CF0895B6
:1026C0002EEC37E0009729F0F9013197F1F70197E7
:1026D000F9CF089584E190E00197F1F70895A0E023
:1026E000B0E0E4E7F3E134C78C01EB01E42E5901DB
:1026F0008AE04817A1F0E5E14E133EC0CA80DB80B6
:1027000040E0C80117D641E0BE01C801F3D5F6018B
:10271000F280C680D78088E0982E9F0C09C043E0E5
:10272000C801DED546E850E0BE01C8011FD624C06E
:1027300040E0BE01C801FED54EE3BE01C80104D68B
:102740004F2D4068BE01C801FFD540E8BE01C80159
:10275000FBD541E0BE01C801EDD5960148E1BE01BF
:10276000C801FCD5F8E1CF0ED11CF394F910E0CFED
:1027700040E0BE01C801BED595014E2DBE01C80185
:102780004CD4CDB7DEB7EBE0FFC6FC01E60FF11D80
:10279000849190E0982F88273196E4918E0F911DB7
:1027A0000895FC0184910895FCDF882321F0823094
:1027B00011F083E0089586E0089580E0089566E0D2
:1027C000E4CF68E0E2CF0A96FC01849108950B966D
:1027D000FC0184910895A0E0B0E0E0EFF3E1BAC617
:1027E0008C01E62EDC011496CD91DC911597CE017B
:1027F000D8DFF82EF80184819581D6DFC82EF1E06C
:10280000FF1203C02FE0B22E02C0BB24BA94D8013D
:1028100014968D919C911597D6DFF82EF80184813E
:102820009581D5DFD82ED80114968D919C9115975E
:10283000C8DFB0E6BE1538F4009729F0C80FD91FDD
:1028400091E6F92E0FC0F80184819581B8DFF0E49C
:10285000FE1538F4009729F0C80FD91F81E4F82E2F
:1028600001C06196DE1490F4D80150961C925097E6
:1028700053961C92539754961C92549751961C92BF
:10288000519752961C9280E090E066C0DF1460F38E
:102890008C2D90E0FE0124912F3F11F4219657C01A
:1028A000FE104CC0D80114968D919C91159779DF3C
:1028B0009E012F5F3F4FFE01882311F08230E1F42B
:1028C0008491D80153968C935397F901249154968F
:1028D0002C935497FE013396E4915096EC935097C5
:1028E000FE013496E4915196EC935197FE01359692
:1028F000E4915296EC9320C08491982F9F7092504F
:10290000D80152969C93529782958F7051968C93D2
:102910005197F9012491822F8F7054968C9354977C
:1029200022952F7053962C935397FE013296E49183
:10293000E295EF705096EC93CE010EC0FE013296F8
:10294000E491EB219C012E0F311DC20FD31FFD140A
:1029500009F48ACFF3949ECFCDB7DEB7E9E016C66F
:102960004F925F926F927F929F92AF92BF92CF925F
:10297000DF92EF92FF920F931F93CF93DF931F92FB
:10298000CDB7DEB72C01C62E942E622F24DF7C013A
:10299000892B09F43AC0F2018481958105DFB82EB4
:1029A000F201138904898189C80E8289981AD92C69
:1029B000D01A212F4D2D6C2DC20170D4882311F116
:1029C000EB0CF11C195F169516951695612E712C5E
:1029D000D914C1F03C2D57018A2D8E19811770F43E
:1029E000F501049120E04D2D632FC20139838BD274
:1029F000FFEFAF1ABF0A3981385FEECFE60CF71C44
:102A0000D394E6CFF201808901C080E00F90DF917E
:102A1000CF911F910F91FF90EF90DF90CF90BF90DB
:102A2000AF909F907F906F905F904F9008954F92DE
:102A30005F927F928F929F92AF92BF92CF92DF92DE
:102A4000EF92FF920F931F93CF93DF931F92CDB717
:102A5000DEB72C01F62EC42E622FBDDE4C01892B71
:102A600009F443C0F201848195819EDEE82EF201D3
:102A7000D388B48812891F5F1F0D8189C80E0D2D60
:102A80002B2D4C2D612FC20109D4882359F1C4018B
:102A90008E0D911D7C0187E08D0DD82ED694D69495
:102AA000D6948FEF8B0D180F712E7B188D2C912CD7
:102AB0001715C1F03C2D57018A2D8E198D1570F414
:102AC000F501049121E0432F612FC20139831BD20C
:102AD000FFEFAF1ABF0A3981385FEECFE80CF91C5F
:102AE0001150E6CFF201808901C080E00F90DF91A4
:102AF000CF911F910F91FF90EF90DF90CF90BF90FB
:102B0000AF909F908F907F905F904F900895AF927D
:102B1000BF92DF92EF92FF920F931F93CF93DF93B9
:102B200000D0CDB7DEB77C01D62E042FDC01559640
:102B3000ED91FC91569729833A830995080F2981D5
:102B4000A22E3A81B32E10E0F50121915F012223DC
:102B500039F0402F6D2DC70103DFD80E180FF4CFC9
:102B6000812F0F900F90DF91CF911F910F91FF90C8
:102B7000EF90DF90BF90AF900895AF92BF92DF9239
:102B8000EF92FF920F931F93CF93DF9300D0CDB7B7
:102B9000DEB77C01062FD42EDC015596ED91FC9119
:102BA000569729833A830995081B2981A22E3A81D9
:102BB000B32E10E0F50121915F01222339F04D2D54
:102BC000602FC70134DFD80E180FF4CF812F0F907C
:102BD0000F90DF91CF911F910F91FF90EF90DF90B9
:102BE000BF90AF900895DC0114962D913C911597FC
:102BF0002115310509F43FC057968C915797F9017B
:102C0000811108C03596E4915896EC935897F901D4
:102C10003C9611C0813041F43F96E4915896EC9374
:102C20005897F901709607C03D96E4915896EC9339
:102C30005897F9013E96E4915996EC935997589616
:102C40008C915897082E000C990B59962C915997F6
:102C5000821B910927FD93955A962C915A972034FF
:102C600041F0829FC001112426E0969587952A9510
:102C7000E1F75B968C9308952DED33E1FC01368BE3
:102C8000258B0895CF93DF93FC012481358126178E
:102C9000370741F0EC0175836483A5DF8DED93E187
:102CA0009E8B8D8BDF91CF9108951F93CF93DF93F0
:102CB000EC011D821C821F821E82198681E088879A
:102CC00082E28A871F861E86FE01B396CE01C196D8
:102CD0002FEF2193E817F907E1F711E018A3CE01D0
:102CE000CBDF1F8B188E198E80E48A8F1B8E8DE4AC
:102CF00099E19AAB89ABDF91CF911F910895DB01E8
:102D0000ED91FC9109950895EF92FF921F93CF9357
:102D1000DF9300D0CDB7DEB77C01DC01D196ED9119
:102D2000FC91D29782E069837A83099520E030E0B4
:102D30004AE069817A81C701E2DF182FD701D19675
:102D4000ED91FC91D29783E00995D701D196ED9151
:102D5000FC91D29780E00995812F0F900F90DF9121
:102D6000CF911F91FF90EF9008950F931F93CF93F2
:102D7000DF93EC018B01E9A9FAA982E00995E9A9A1
:102D8000FAA981E0099520E030E044E1B801CE01E4
:102D9000B6DF9E012D5C3F4F47E1B801CE01AFDFAA
:102DA000E9A9FAA980E00995DF91CF911F910F91D0
:102DB0000895EF92FF921F93CF93DF93EC017B0175
:102DC000E9A9FAA982E00995E9A9FAA981E009959A
:102DD00020E030E045E1B701CE0191DF182F8823D4
:102DE00039F09E012D5C3F4F47E1B701CE0187DFEF
:102DF000E9A9FAA980E00995812FDF91CF911F9170
:102E0000FF90EF900895A1E0B0E0E8E0F7E1A9C3FA
:102E10009E012F5F3F4F46E472DF89812196E2E0F9
:102E2000BCC3A1E0B0E0E6E1F7E19BC39E012F5FE8
:102E30003F4F47E464DF89812196E2E0AEC320E0A2
:102E400030E048E45CCFCF93DF93EC016A817B8173
:102E5000DADF88836A817B81CE01E3DF89836A813F
:102E60007B81CE01ECDF8B879E012D5C3F4F6A8119
:102E70007B8147E1CE0143DFDF91CF910895CF936E
:102E8000DF93EC016A817B813FDF882319F0CE015B
:102E9000DADF81E0DF91CF910895CF92DF92EF9258
:102EA000FF920F93CF93DF9300D0CDB7DEB76C01C5
:102EB0007B012A834983F9DEF601F382E2824981AC
:102EC00045A32A8124A303A3C601D9DF0F900F9045
:102ED000DF91CF910F91FF90EF90DF90CF90089509
:102EE000FC016281738141CFCF93DF93EC01EE85CA
:102EF000FF85309709F009956A817B81CE0159DF02
:102F0000DF91CF9108950F93FC0182819381648FAB
:102F1000458F278F068F9F01245E3F4F4BE3BC01F7
:102F2000CF01EDDE0F910895FC0160A308950F938A
:102F30001F93CF93DF93EC010E811F819D819695A6
:102F400096959695862F8770A0E8B0E002C0B5955B
:102F5000A7958A95E2F78A81481B499F402D112445
:102F6000669566956695E62FF0E0E40FF11DE00F9B
:102F7000F11F8081222311F0A82B02C0A095A82365
:102F8000A083DF91CF911F910F910895FC01DB0188
:102F900011964C9111978281481758F083818417BC
:102FA00040F06C918581681720F4CF0114962C9124
:102FB000BECF0895CF92DF92FF920F931F93CF93CE
:102FC000DF936C01EB01FA809B81913051F030F07E
:102FD000923049F0933051F41FEF09C010E001E046
:102FE00007C011E004C010E00FEF02C010E000E0E5
:102FF000F7FE03C0BE01C601C9DF9881900F988318
:103000009981910F9983FF0C99F7DF91CF911F91CF
:103010000F91FF90DF90CF9008950F931F93CF9360
:10302000DF938901FB01C281D3814233D9F058F487
:103030004531E1F0473109F1443141F5CE012CD061
:10304000CE015CD223C04634E1F04734E1F04B338B
:10305000E9F4B901CE0156D08823C1F0B801CE0100
:10306000A9DF14C0B901CE0191DF10C0CE014DD24D
:10307000882369F0CE0110D009C0B901CE0132D049
:1030800005C08D8101C08981F801808381E0DF91D5
:10309000CF911F910F910895DC011696ED91FC914F
:1030A000179715968C919F01280F311DC901119218
:1030B000E817F907E1F70895FC0191E0838186178D
:1030C00008F490E031E0461708F030E0832F892BB8
:1030D00021E05281451708F420E02823832F89231B
:1030E000822B0895DC01FB01108212968C911297BD
:1030F000818315968C9115978150828313968C91BC
:1031000083830895FB0141812381213029F02330FD
:1031100031F468EF640F04C0642F485F01C0642F6E
:10312000CBCFA0E0B0E0E6E9F8E115C27C01D62FF4
:10313000D42EC22F122FC62EC20E6C2D611B18303A
:1031400038F00FEF20E04D2DC701DDDE1850F5CF30
:103150006C2F687F6D0F2C2F277079F097E029274F
:103160002F5F27700FEF10E002C0000F111F2A958C
:10317000E2F720E04D2DC701C6DECDB7DEB7E8E0AF
:1031800006C2A0E0B0E0E6ECF8E1E5C17C01D62E95
:10319000D42FC22F122FC42EC20E4C2D411B18301B
:1031A00038F00FEF21E06D2DC701ADDE1850F5CFDF
:1031B0004C2F487F4D0F2C2F277079F097E029274F
:1031C0002F5F27700FEF10E002C0000F111F2A952C
:1031D000E2F721E06D2DC70196DECDB7DEB7E8E05E
:1031E000D6C1EF92FF920F931F93CF93DF93EC0121
:1031F000162FF42EE22E01E051D0882329F02E2D37
:103200004F2D612FCE018DDFCDB7DEB7E6E0C1C116
:10321000EF92FF920F931F93CF93DF93EC01162F42
:10322000F42EE22E022F21E039D0882329F02E2D12
:103230004F2D612FCE01A5DFCDB7DEB7E6E0A9C1E6
:10324000EF92FF920F931F93CF93DF937C01D62FC2
:10325000122FC42F040F212F4C2F6D2FC70161DFB8
:10326000CF5F0C13F8CFCDB7DEB7E6E092C1A0E098
:10327000B0E0ECE3F9E170C1EC01162FF42EE22E80
:10328000D02E0CD0882329F02E2D4F2D612FCE016A
:10329000D7DFCDB7DEB7E7E07BC108950F93FC0120
:1032A0000150040F84A996A9941718F0081728F460
:1032B00002C0081750F0041740F42150260F83A9CC
:1032C00095A9961720F4281720F480E007C0281746
:1032D00020F481E0261710F0F8CF81E00F910895D7
:1032E000DB011496ED91FC91159720E030E061E050
:1032F00009950895DB011496ED91FC91159720E056
:1033000030E063E009950895DB011496ED91FC919E
:10331000159720E030E040E064E009950895DB0176
:103320001496ED91FC91159720E030E041E064E0C7
:1033300009950895DB011496ED91FC91159720E015
:1033400030E062E009950895DB011496ED91FC915F
:10335000159720E030E065E009950895DB011496AB
:10336000ED91FC91159766E009950895A0E0B0E015
:10337000EBEBF9E1F0C08C017B016A0180E0F60122
:10338000C491811109C0CF3FB1F14C2FB701C801E1
:10339000DBDF811129C034C0CF3F11F44FEFF6CFEE
:1033A000CE3F81F1C03F00F5C03E30F04C2F4F7052
:1033B000B701C801BFDF18C0C03D30F04C2F4F70BF
:1033C000B701C80197DF10C0C03C80F0B701C80149
:1033D0009BDFC295C07FCE5FD0E0CE0171D9B7012F
:1033E000C8019DDFCE016CD980E006C0C7FDFCCFCF
:1033F0008C2F90E0F8CF81E0FFEFCF1ADF0ABFCF2C
:1034000080E001C081E0CDB7DEB7E8E0C0C08EBD8E
:103410000DB407FEFDCF8EB50895CF93C62F811151
:1034200002C088EF03C0813011F48AEFF0DF8C2FE7
:10343000807FEDDF8C2F8295807FE9DF4BD94AD9E1
:1034400049D948D9CF910895A1E0B0E0E9E2FAE185
:1034500084C07C018901862F90E0FC013197E73020
:10346000F10508F047C0EC5CFF4F65C062E0C701A2
:1034700016D98FB780933502F894239A259A229A09
:103480002B982D98809135028FBF41E062E0C701F3
:103490000ED91CBC8CE58CBDF70116A22BC060E0D8
:1034A00006C0F70146A326C0411104C062E0C7016F
:1034B000FED820C041E0FACF642FF70186A1ADDF2E
:1034C00019C04423B9F0F80161918F01F70186A179
:1034D0004983A3DF49814150F4CF442359F0F801D7
:1034E0006491F70186A1498398DF0F5F1F4F4981DF
:1034F0004150F3CF81E02196E6E04BC0FC011282FF
:1035000080818150838314820895FC01808192819F
:10351000980F92832181921760F494819F5F948326
:103520009381890F821710F08FEF820F838381E0E0
:10353000089580E00895EE0FFF1F0590F491E02DAF
:1035400009942F923F924F925F926F927F928F9247
:103550009F92AF92BF92CF92DF92EF92FF920F9322
:103560001F93CF93DF93CDB7DEB7CA1BDB0B0FB62C
:10357000F894DEBF0FBECDBF09942A8839884888E9
:103580005F846E847D848C849B84AA84B984C8847F
:10359000DF80EE80FD800C811B81AA81B981CE0F76
:1035A000D11D0FB6F894DEBF0FBECDBFED0108955B
:1035B000FB01DC0102C005900D9241505040D8F74C
:0635C0000895F894FFCF0E
:1035C6006F130601241A0820000000C03E015500B2
:1035D60038006700636F64652E676F6F676C652ED2
:1035E600636F6D00636F64652E676F6F676C652E22
:0E35F600636F6D2F702F7538676C696200006F
:00000001FF
