:100000009BC30000B5C30000B3C30000B1C3000030
:10001000AFC30000ADC30000ABC30000A9C3000024
:10002000A7C30000A5C30000A3C30000A1C3000034
:100030009FC300009DC300009BC3000099C3000044
:1000400097C3000095C3000093C3000091C3000054
:100050008FC300008DC300008BC3000089C3000064
:1000600087C3000085C300000000250028002B0086
:100070000000240027002A00FFE0FFD11508377593
:10008000FFFEFF0AFFD0FFE0FFC1FFD1FD12AEA8C7
:100090005FA100A260A046AB018153B151B301B989
:1000A000BC08BE07B601D562A5AFFF64A4FF64A576
:1000B000AFFF64A415083775085FFFE10F0F00005C
:1000C0000F0F00000F0F00000F0F00000F0F0000B8
:1000D0000F0F00000F0F00000F0F0000FFD0FFFEFA
:1000E00001050700FF060115022720FFFF06FF0696
:1000F000FF08005022165680808080008015335300
:10010000A0A0A002555550F850F85002555570A0C7
:10011000702870024656809020409010024555404D
:10012000A040A05025135380808012265640808026
:10013000808040122656804040404080123555A0B5
:1001400040E040A00255552020F820201133536094
:100150004080044151F0122252C0C0034454102088
:10016000408012365640A0A0A0A04012365640C093
:10017000404040E00246566090102040F002465653
:10018000F010601090600246562060A0F02020021F
:100190004656F080E01090600246566080E09090F5
:1001A00060024656F01020204040024656609060A3
:1001B000909060024656609090701060122555C075
:1001C000C000C0C0013656606000604080123555E6
:1001D0002040804020034353F000F012355580400A
:1001E00020408012365640A0204000400246566013
:1001F00090B0B08060024656609090F090900246B9
:1002000056E090E09090E0024656609080809060CA
:10021000024656E090909090E0024656F080E080D2
:1002200080F0024656F080E0808080024656609062
:1002300080B090700246569090F090909012365692
:10024000E040404040E0024656101010109060021E
:10025000465690A0C0C0A090024656808080808004
:10026000F002465690F0F090909002465690D0D012
:10027000B0B090024656609090909060024656E072
:100280009090E0808001475760909090D06010027D
:100290004656E09090E0A090024656609040209034
:1002A00060123656E04040404040024656909090E2
:1002B00090906002465690909090606002465690F2
:1002C0009090F0F0900246569090606090901236B8
:1002D00056A0A0A0404040024656F010204080F0BA
:1002E000123656E080808080E00344548040201025
:1002F000123656E020202020E016325240A0024163
:1003000051F016225280400244547090B050024680
:10031000568080E09090E002345460808060024615
:100320005610107090907002445460B0C060024645
:1003300056205040E040400145557090608070026A
:1003400046568080E09090901236564000C0404063
:10035000E01137572000202020A040024656808020
:10036000A0C0A090123656C040404040E002445425
:10037000A0F09090024454E0909090024454609019
:100380009060014555E09090E08001455570909057
:100390007010024454E090808002445470C030E0F9
:1003A0000246564040E040403002445490909070E5
:1003B000123454A0A0A0400244549090F0F00244A3
:1003C00054906060900145559090502040024454F4
:1003D000F02040F01236562040C0404020221656F1
:1003E0008080808080801236568040604040800649
:1003F000425250A0FFFFFFFFFFFFFFFFFFFFFFFF85
:10040000FFFFFFFFFFFFFFFFFFFFFFFFFFFFFFFFFC
:10041000FFFFFFFFFF0800502216568000808080FB
:10042000800146562070A0A070200245553040E063
:1004300040B00255558870507088123656A0A040C2
:10044000E040402215558080008080113757608041
:10045000C0A06020C0173151A00157577088A8C8AC
:10046000A8887005335360A0600353534890480335
:100470004252F010143151E00157577088E8C8C853
:100480008870074151F015335340A0400256562062
:1004900020F82020F8142454C04080C0142454C0F4
:1004A000C040C01622524080014555909090E08097
:1004B00002465670D0D0505050142252C0C0112263
:1004C00052408014345440C040E005335340A040B3
:1004D00003535390489001475780808090307010AC
:1004E000014757808080B0102030014757C0C0407E
:1004F000D030701012365640004080A04002465660
:10050000609090F09090024656609090F09090022B
:100510004656609090F09090024656609090F09011
:1005200090024656906090F090900246566060901F
:10053000F0909002465670A0B0E0A0B0014757601E
:10054000908080906040024656F080E08080F0020B
:100550004656F080E08080F0024656F080E08080D1
:10056000F0024656F080E08080F0123656E04040BF
:100570004040E0123656E040404040E0123656E03F
:1005800040404040E0123656E040404040E00246E5
:1005900056E050D05050E0024656B090D0B0B090E7
:1005A00002465660909090906002465660909090FF
:1005B000906002465660909090906002465660901F
:1005C00090909060024656906090909060024454E3
:1005D0009060609002465670B0B0D0D0E0024656AF
:1005E000909090909060024656909090909060020B
:1005F0004656909090909060024656900090909051
:1006000060123656A0A0A040404002465680E090BE
:10061000E080800246566090A09090A0024656402E
:10062000207090B05002465620407090B050024664
:100630005620507090B05002465650A07090B05066
:1006400002465650007090B050024656606070905E
:10065000B05002445470B0A0701135556080806075
:1006600040024656402060B0C060024656204060BE
:10067000B0C06002465640A060B0C060024656A0BE
:100680000060B0C0601236568040C04040E0123674
:10069000564080C04040E012365640A0C04040E086
:1006A000123656A000C04040E002465640306090EE
:1006B000906002465650A0E090909002465640202E
:1006C00060909060024656204060909060024656CE
:1006D00060006090906002465650A060909060026A
:1006E00046565000609090600245556000F00060F2
:1006F00002445470B0D0E002465640209090907072
:1007000002465620409090907002465660009090AD
:1007100090700246565000909090700147572040CC
:10072000909050204001465680E09090E080014734
:10073000575000909050204011241FBECFEFD4E0BE
:10074000DEBFCDBF11E0A0E0B1E0EAE5FAE102C012
:1007500005900D92A434B107D9F721E0A4E4B1E0EB
:1007600001C01D92A83EB207E1F7E3D00C942B0D17
:1007700047CC65E082E00CD127D165E082E008D16A
:1007800061E039D165E082E003D108D164E082E024
:10079000FFD01AD164E082E0FBD061E02CD164E0AC
:1007A00082E0F6D0FBD040E068E071E081EB91E0C0
:1007B000E6D481EB91E018D78091BC01883211F426
:1007C0006FEF07C0823011F463E003C0813021F481
:1007D00061E081EB91E00AC50895E1E6F0E080E890
:1007E00080831082089555985D9A56985E9A57981E
:1007F0005F9A27982F9A089589B14E9B06C085FB72
:10080000882780F991E0892701C082E04F9B83E02F
:100810001F9B846008958091490180934801ECDF1B
:100820008093490190914801981303C09093470128
:100830000895109247010895A0E0B0E0E2E2F4E0EC
:100840000C94F00C60EE70E081EB91E08DD381EBC5
:1008500091E061D381EB91E067D31091C901809160
:10086000CA01181B7090B10190E0E92E91E0F92EB9
:10087000D0E0C0E0A72CB12C6701F7016081718145
:1008800081EB91E057D3B501681B710977FF02C076
:100890006F5F7F4F4B019594879481EB91E0B5D4C6
:1008A00080914601C8130BC0012F272D41E04D0F49
:1008B00060E081EB91E0EED581EB91E0B7D4F2E01E
:1008C000EF0EF11CF601208131814D2F682D81EB57
:1008D00091E0A2D2CF5FD10FC43071F6CDB7DEB7B1
:1008E000EDE00C940C0D80914701882321F090914C
:1008F00044019817E9F080934401813051F082302F
:10090000B9F4809146018F5F843068F010924601FF
:100910000CC080914601811103C084E080934601A0
:100920008091460181508093460181E0809345018A
:10093000089553DF58DF1DDF81E0809345016BDFB1
:1009400080914501882359F081EB91E02BD474DF2D
:1009500081EB91E02BD48111FACF10924501C3DFD6
:10096000EECFA2E0B0E0E7EBF4E00C94FB0C860FD6
:10097000911D860F911D42E050E0BC01CE01019611
:100980000E94220D89819A812296E2E00C94170D33
:1009900098E0899F600D1124862F0895CF93C82F6A
:1009A000682F66956695669580E790E0DADFFC0132
:1009B0004081C77021E030E001C0220FCA95EAF7FC
:1009C000242B2083CF910895CF93C82F682F66954D
:1009D0006695669580E790E0C4DFFC014081C770B2
:1009E00021E030E001C0220FCA95EAF720952423C8
:1009F0002083CF910895CF93DF93C82FD62F682FF0
:100A000066956695669588E690E0ABDFFC01C77059
:100A10008FB7D1110BC0F894908121E030E001C074
:100A2000220FCA95EAF72095292309C0F8949081EE
:100A300021E030E001C0220FCA95EAF7292B20837C
:100A40008FBFDF91CF910895DC0110924A0110927F
:100A50004B0110924C0110924D01EAE4F1E084E068
:100A60008E0F411107C0211105C02AE431E044E096
:100A7000CD0132C6942F93709295907F322F3370B0
:100A8000932B990F990F9193469546952695269508
:100A90008E13E7CFEACFA0E0B0E0E0E5F5E0A3C732
:100AA0008C01EB01E42E69018FE0481709F43EC088
:100AB000E5E14E1761F0FAE04F134FC042E0C80184
:100AC000CDD542E850E0BE01C8010ED646C0EA814D
:100AD000FB81F48048E750E0C80106D6FF0CFF0C0C
:100AE0004F2DBE01C801EED543E04F0DBE01C80138
:100AF000E9D541E0BE01C801DBD5EA81FB81F58083
:100B0000F694A680B780F5014081F2E0AF0EB11CEB
:100B1000F50131972081BE01C80196DFFA94F110EA
:100B2000F2CF40E0BE01C801A3D517C041E0C80123
:100B30009FD540E0BE01C801BBD541E8BE01C80158
:100B4000C1D5F60140814695BE01C801BBD540E044
:100B5000BE01C8018DD581E005C096014E2DBE01B4
:100B6000C801C7D3CDB7DEB7EAE059C7FC01E60F2D
:100B7000F11D849190E0982F88273196E4918E0F93
:100B8000911D0895FC0184910895FCDF882321F0D4
:100B9000823011F083E0089586E0089580E00895A2
:100BA000FC01808D8F5F089566E0E0CF68E0DECFC6
:100BB0000A96FC01849108950B96FC018491089596
:100BC000A0E0B0E0E5EEF5E00FC78C01E62EDC0119
:100BD0001496CD91DC911597CE01D4DFF82EF80153
:100BE00084819581D2DFC82EF1E0FF1203C02FE08F
:100BF000B22E02C0BB24BA94D80114968D919C9158
:100C00001597D6DFF82EF80184819581D5DFD82E8F
:100C1000D80114968D919C911597C8DFB0E6BE154A
:100C200038F4009729F0C80FD91F91E6F92E0FC0AC
:100C3000F80184819581B8DFF0E4FE1538F400975F
:100C400029F0C80FD91F81E4F82E01C06196DE1487
:100C500090F4D80150961C92509753961C9253973B
:100C600054961C92549751961C92519752961C92EE
:100C700080E090E066C0DF1460F38C2D90E0FE0110
:100C800024912F3F11F4219657C0FE104CC0D8017B
:100C900014968D919C91159775DF9E012F5F3F4FA4
:100CA000FE01882311F08230E1F48491D80153963B
:100CB0008C935397F901249154962C935497FE01E9
:100CC0003396E4915096EC935097FE013496E4915C
:100CD0005196EC935197FE013596E4915296EC9320
:100CE00020C08491982F9F709250D80152969C9367
:100CF000529782958F7051968C935197F901249158
:100D0000822F8F7054968C93549722952F70539600
:100D10002C935397FE013296E491E295EF70509632
:100D2000EC93CE010EC0FE013296E491EB219C01C2
:100D30002E0F311DC20FD31FFD1409F48ACFF39477
:100D40009ECFCDB7DEB7E9E06BC64F925F926F9250
:100D50007F929F92AF92BF92CF92DF92EF92FF92DB
:100D60000F931F93CF93DF931F92CDB7DEB72C0164
:100D7000C62E942E622F24DF7C01892B09F43AC001
:100D8000F2018481958101DFB82EF2011389048973
:100D90008189C80E8289981AD92CD01A212F4D2DFD
:100DA0006C2DC20139D4882311F1EB0CF11C195FB1
:100DB000169516951695612E712CD914C1F03C2DFF
:100DC00057018A2D8E19811770F4F501049120E0E6
:100DD0004D2D632FC2013983F8D1FFEFAF1ABF0A3F
:100DE0003981385FEECFE60CF71CD394E6CFF201E1
:100DF000808901C080E00F90DF91CF911F910F910A
:100E0000FF90EF90DF90CF90BF90AF909F907F903A
:100E10006F905F904F900895AF92BF92DF92EF92E4
:100E2000FF920F931F93CF93DF9300D0CDB7DEB720
:100E30007C01D62E042FDC015596ED91FC9156973E
:100E400029833A830995080F2981A22E3A81B32E6E
:100E500010E0F50121915F01222339F0402F6D2D23
:100E6000C70173DFD80E180FF4CF812F0F900F90AA
:100E7000DF91CF911F910F91FF90EF90DF90BF9086
:100E8000AF900895DC0114962D913C911597211592
:100E9000310509F43FC057968C915797F90181119C
:100EA00008C03596E4915896EC935897F9013C9612
:100EB00011C0813041F43F96E4915896EC935897D5
:100EC000F901709607C03D96E4915896EC935897B7
:100ED000F9013E96E4915996EC93599758968C9166
:100EE0005897082E000C990B59962C915997821BF4
:100EF000910927FD93955A962C915A97203441F0E9
:100F0000829FC001112426E0969587952A95E1F7E6
:100F10005B968C930895FC01178AB4CF2EEC35E0D4
:100F2000FC01368B258B089520ED35E0FC01368BD6
:100F3000258B0895EF92FF920F931F93CF938C010F
:100F40007B01C0E0F70161917F01662331F0C801A8
:100F500037DEF8018089C80FF5CF8C2FCF911F9114
:100F60000F91FF90EF900895CF93DF93FC012481C0
:100F700035812617370741F0EC017583648382DFE2
:100F80008EEC95E09E8B8D8BDF91CF9108951F9312
:100F9000CF93DF93EC011D821C821F821E82198673
:100FA00081E0888782E28A871F861E86FE01B396CB
:100FB000CE01C1962FEF2193E817F907E1F711E071
:100FC00018A3CE01ABDF1F8B188E198E80E48A8F99
:100FD0001B8E8BE09BE09AAB89ABDF91CF911F9189
:100FE0000895DB01ED91FC9109950895EF92FF9230
:100FF0001F93CF93DF9300D0CDB7DEB77C01DC0128
:10100000D196ED91FC91D29782E069837A8309951C
:1010100020E030E04AE069817A81C701E2DF182FE1
:10102000D701D196ED91FC91D29783E00995D70134
:10103000D196ED91FC91D29780E00995812F0F9088
:101040000F90DF91CF911F91FF90EF9008950F9334
:101050001F93CF93DF93EC018B01E9A9FAA982E0FA
:101060000995E9A9FAA981E0099520E030E044E179
:10107000B801CE01B6DF9E012D5C3F4F47E1B801BC
:10108000CE01AFDFE9A9FAA980E00995DF91CF9100
:101090001F910F910895EF92FF921F93CF93DF93CB
:1010A000EC017B01E9A9FAA982E00995E9A9FAA96D
:1010B00081E0099520E030E045E1B701CE0191DF04
:1010C000182F882339F09E012D5C3F4F47E1B7016F
:1010D000CE0187DFE9A9FAA980E00995812FDF9188
:1010E000CF911F91FF90EF900895A1E0B0E0EAE763
:1010F000F8E081C49E012F5F3F4F46E472DF898193
:101100002196E2E094C4A1E0B0E0E8E8F8E073C41E
:101110009E012F5F3F4F47E464DF89812196E2E023
:1011200086C420E030E048E45CCFCF93DF93EC014D
:101130006A817B81DADF88836A817B81CE01E3DF8C
:1011400089836A817B81CE01ECDF8B879E012D5CD8
:101150003F4F6A817B8147E1CE0143DFDF91CF9131
:101160000895CF93DF93EC016A817B813FDF882371
:1011700019F0CE01DADF81E0DF91CF910895A1E08F
:10118000B0E0E4ECF8E033C47C018B014983FFDE7E
:10119000F70113830283498146A7C701E2DF219645
:1011A000E6E041C4FC016281738151CFCF93DF93AC
:1011B000EC01EE85FF85309709F009956A817B8106
:1011C000CE0169DFDF91CF9108950F93FC018281F9
:1011D0009381648F458F278F068F9F01245E3F4F39
:1011E0004BE3BC01CF01FDDE0F910895FC0160A32C
:1011F0000895FC018385883221F0823021F081E05E
:1012000008958FEF089583E00895CF93DF93FC0155
:101210008385803321F48FEF80A381A304C0EF0185
:10122000CF01E7DF88A3DF91CF910895FC0110A2E1
:101230000895DC011696ED91FC91179712968C910A
:10124000481B4370440F83E090E0042E01C0880FD8
:101250000A94EAF72370322F01C0330F4A95EAF758
:10126000E60FF11D809590818923232F282B208361
:101270000895FC01DB0111964C911197828148176A
:1012800058F08381841740F06C918581681720F4B1
:10129000CF0114962C91CDCF0895EF92FF921F931A
:1012A000CF93DF937C01EB011A8117FF03C0BE01CE
:1012B000C701DFDF9B81913061F038F0923061F03F
:1012C000933079F4998191500BC088818F5F888326
:1012D00008C099819F5F04C098819150988301C094
:1012E0009983110F11F7DF91CF911F91FF90EF902C
:1012F00008950F931F93CF93DF938901FB01C28160
:10130000D381423309F158F4453111F1473139F1B4
:10131000443171F5CE0132D0CE0140D329C04634DC
:1013200011F118F44B3339F023C04734F1F048344D
:10133000F9F482E01EC0B901CE0156D08823C1F075
:10134000B801CE01AADF14C0B901CE0192DF10C0EE
:10135000CE012BD3882369F0CE0110D009C0B9018A
:10136000CE0132D005C08D8101C08981F801808312
:1013700081E0DF91CF911F910F910895DC011696C6
:10138000ED91FC91179715968C919F01280F311DB7
:10139000C9011192E817F907E1F70895FC0191E0FE
:1013A0008381861708F490E031E0461708F030E0BA
:1013B000832F892B21E05281451708F420E0282350
:1013C000832F8923822B0895DC01FB011082129662
:1013D0008C911297818315968C91159781508283F9
:1013E00013968C9183830895FB01418123812130E1
:1013F00029F0233031F468EF640F04C0642F485F94
:1014000001C0642FCBCFA0E0B0E0E8E0FAE0EDC28D
:101410007C01D62FD42EC22F122FC62EC20E6C2DB9
:10142000611B183038F00FEF20E04D2DC701CDDEE5
:101430001850F5CF6C2F687F6D0F2C2F277079F027
:1014400097E029272F5F27700FEF10E002C0000FF1
:10145000111F2A95E2F720E04D2DC701B6DECDB76A
:10146000DEB7E8E0DEC2EF92FF920F931F93CF93B7
:10147000DF937C01D62F122FC42F040F212F4C2F66
:101480006D2FC701C0DFCF5F0C13F8CFCDB7DEB72C
:10149000E6E0C9C2A0E0B0E0EFE4FAE0A7C2EC01E8
:1014A000162FF42EE22ED02EB7D0882329F02E2D21
:1014B0004F2D612FCE01D7DFCDB7DEB7E7E0B2C247
:1014C00080E008958F929F92BF92CF92DF92EF9229
:1014D000FF920F931F93CF93DF931F92CDB7DEB789
:1014E0008C014901FB01E280F380423309F442C0E0
:1014F00048F44C3209F43EC04D3209F44DC0473136
:1015000069F007C0463471F1473479F14B3309F47F
:1015100043C09401B701C80164DD59C047E1B70178
:1015200060DDB701C801E1DDF401B280B094B80E0E
:10153000B701C801DADDF401D080D094D80EB7012C
:10154000C801E1DDF401C380C094C80EB701C80131
:10155000DADDF40191819095890FB082C182D28247
:10156000838334C0B701C1DD02C0B701CCDDF40113
:1015700080832CC0B701C8014983C5DDF401D18047
:10158000D094D80EB701C801B0DDF40190819095D8
:10159000890F8083D18215C0B701C8014983B3DDAB
:1015A000F401D180D094D80EB701C8019EDDF401BA
:1015B00090819095890F8083D18283818E5F837023
:1015C000838394014981B701C8010BDD81E00F904D
:1015D000DF91CF911F910F91FF90EF90DF90CF900F
:1015E000BF909F908F900895FC0122813381F1E09C
:1015F00026313F0749F0309319012093180126E165
:1016000031E0FC013383228322E63AE03093170174
:10161000209316018ACD08950F93FC010150040F09
:1016200084A996A9941718F0081728F402C008177F
:1016300050F0041740F42150260F83A995A996175E
:1016400020F4281720F480E007C0281720F481E058
:10165000261710F0F8CF81E00F910895DB01149662
:10166000ED91FC91159720E030E061E00995089537
:10167000DB011496ED91FC91159720E030E063E0DA
:1016800009950895DB011496ED91FC91159720E0E2
:1016900030E040E064E009950895DB011496ED9197
:1016A000FC91159720E030E041E064E00995089551
:1016B000DB011496ED91FC91159720E030E062E09B
:1016C00009950895DB011496ED91FC91159720E0A2
:1016D00030E065E009950895DB011496ED91FC91E9
:1016E000159766E009950895A0E0B0E0E9E7FBE012
:1016F0007CC18C017B016A0180E0F601C4918111FB
:1017000009C0CF3FB1F14C2FB701C801DBDF811118
:1017100029C034C0CF3F11F44FEFF6CFCE3F81F157
:10172000C03F00F5C03E30F04C2F4F70B701C801EC
:10173000BFDF18C0C03D30F04C2F4F70B701C8015B
:1017400097DF10C0C03C80F0B701C8019BDFC29595
:10175000C07FCE5FD0E0CE0117D1B701C8019DDFB9
:10176000CE0112D180E006C0C7FDFCCF8C2F90E0E7
:10177000F8CF81E0FFEFCF1ADF0ABFCF80E001C0D2
:1017800081E0CDB7DEB7E8E04CC1CF93DF93FC0139
:1017900023A5222371F0EC0188E79ED0811102C0BD
:1017A00080E008C08EA1811180E4C9D08823C1F3F4
:1017B0001BA681E0DF91CF9108950F931F93CF93E4
:1017C000C42F89016330B9F050F4613081F0623088
:1017D00009F03FC0FC0146A321E023A73AC06630D0
:1017E000E9F0673041F1653009F033C00CC0FC010D
:1017F00086A542D02EC0FC0116A221E023A74111EC
:1018000028C0BCD026C0C1DF811103C0B7D080E0A2
:1018100021C08C2F94D081111CC0F8CFB6DF882353
:10182000A9F3CC23B1F0F80181918F0188D08823EE
:1018300069F3C150F6CFA9DF882341F3CC2349F0E7
:10184000F80184917CD0882329F00F5F1F4FC1508D
:10185000F5CF81E0CF911F910F9108959091B00144
:10186000911104C08093B0016093AE01089510926D
:10187000B0011092AE0108958093AF011092B900AB
:1018800084FF02C082E001C080E28093B800EFCF05
:10189000A2E0B0E0EDE4FCE0ADC020ED37E03A833B
:1018A00029839091BC00982391F429813A81232BBC
:1018B00049F48091AF01182F127081FD08C081E0BA
:1018C000CDDF06C029813A8121503109E8CF11E0EE
:1018D000812F2296E3E0AAC0CF93C82F84EA809399
:1018E000BC0061E080E8D4DF882351F09091B9001A
:1018F000987F983039F0903129F061E082E0AEDFD6
:10190000C0E01AC0C093BB0084E88093BC0062E0D2
:1019100080E8BEDF8823A1F38091AF01C82FC27099
:1019200081FD09C08091B900887F883121F062E093
:1019300082E094DF01C0C1E08C2FCF910895CF9356
:101940008093BB0084E88093BC0063E080E8A0DF64
:10195000C82F882381F08091AF01C82FC27081FD0C
:1019600009C08091B900887F883221F063E082E06D
:1019700075DF01C0C1E08C2FCF91089584E9809379
:10198000BC0064E080E184CF2EEC37E0009729F0C2
:10199000F9013197F1F70197F9CF0895FC0112820F
:1019A00080818150838314820895FC01808192811B
:1019B000980F92832181921760F494819F5F9483A2
:1019C0009381890F821710F08FEF820F838381E05C
:1019D000089580E008952F923F924F925F926F9208
:1019E0007F928F929F92AF92BF92CF92DF92EF92AF
:1019F000FF920F931F93CF93DF93CDB7DEB7CA1B30
:101A0000DB0B0FB6F894DEBF0FBECDBF09942A885A
:101A1000398848885F846E847D848C849B84AA8402
:101A2000B984C884DF80EE80FD800C811B81AA818F
:101A3000B981CE0FD11D0FB6F894DEBF0FBECDBF5A
:101A4000ED010895FB01DC0102C005900D924150AB
:0A1A50005040D8F70895F894FFCF36
:101A5A001C01270133013B014B050E01DD0B04601C
:101A6A00000000604E01600A0000000046697273BF
:101A7A0074204C696E65005365636F6E6420497407
:101A8A00656D003333333333333300616263646526
:041A9A00666700007B
:00000001FF
