:1000000027C2000041C200003FC200003DC2000004
:100010003BC2000039C2000037C2000035C20000F8
:1000200033C2000031C200002FC200002DC2000008
:100030002BC2000029C2000027C2000025C2000018
:1000400023C2000021C200001FC200001DC2000028
:100050001BC2000019C2000017C2000015C2000038
:1000600013C2000011C200000FC200000DC2000048
:100070000BC2000009C2000007C20000000FF00020
:10008000003FFC0000FF0F0000F8078007C03FE0C2
:100090000F80FFF00F03FFF01E07FFF83C1FFFFC6F
:1000A000383FFFFC783FFFFE707FFFFE61FFFFFEE1
:1000B000E1FFFFFFC7FFFFFFCFFFFFFFFFFFFFFFD6
:1000C000FFFFFFFFFFFFFFFF7FFFFFFE7FFFFFFE42
:1000D0007FFFFFFE3FFFFFFC3FFFFFFC1FFFFFF81E
:1000E0000FFFFFF00FFFFFF007FFFFE001FFFF0032
:1000F00000FFFF00003FFC000003E00000002400C0
:1001000027002A000000250028002B000000230003
:1001100026002900FFD0FFE0FFCFFF64FFD1FF32B0
:10012000380C060201FF64FFD0FFFE01050800FF46
:100130000601210235207FFF07FF06FF090050223C
:100140001656808080800080153353A0A0A00257EF
:10015000575050F850F850500257572070A0702850
:10016000702013355580A040A02002475740A0A022
:1001700040A0A050251353808080122656408080D6
:100180008080401226568040404040800245559075
:1001900060F060900255552020F820201133536004
:1001A0004080044151F011335340E0400246561064
:1001B000102040808012365640A0A0A0A0401236E9
:1001C0005640C0404040E00246566090106080F0CB
:1001D000024656F020601090600246562060A0F063
:1001E0002020024656F080E0109060024656608063
:1001F000E0909060024656F01020204040024656A3
:10020000609060909060024656609090701060120E
:100210002555C0C000C0C0113656606000604080E7
:10022000123656204080804020034353F000F012E5
:10023000365680402020408012365640A020400094
:1002400040015858304898A8A8904030024656605F
:100250009090F09090024656E090E09090E0024638
:1002600056609080809060024656E090909090E0BA
:10027000024656F080E08080F0024656F080E08032
:100280008080024656609080B09060024656909002
:10029000F0909090123656E040404040E0024656C2
:1002A00070202020A04002465690A0C0A0A090023E
:1002B00046568080808080F002465690F0F0909004
:1002C0009002465690D0F0B0B090024656609090A2
:1002D000909060024656E09090E080800147576021
:1002E0009090D0B06010024656E09090E09090025E
:1002F0004656609040209060123656E040404040A4
:100300004002465690909090906002465690909091
:10031000906060024656909090F0F09002465690A1
:1003200090606090900256568888502020200246A7
:1003300056F010204080F0123656E080808080E039
:10034000024656808040201010123656E0202020B1
:1003500020E016325240A0014151F0162252804056
:10036000024454709090700246568080E09090E075
:100370001234546080806002465610107090907065
:1003800002445460B0C060024656205040E04040F5
:1003900001455560907010600246568080E0909054
:1003A000901236564000C04040E0113757200020E0
:1003B0002020A040024656808090E0909012365651
:1003C000C040404040E0025454D0A8A8A802445481
:1003D000E090909002445460909060014555E09008
:1003E000E080800145557090701010024454A0D0F8
:1003F000808012345460C020C00246564040E04025
:10040000502002445490909070123454A0A0A04008
:1004100002545488A8A8500244549060609001454A
:10042000559090709060024454F02040F00247577D
:10043000304020C02040302216568080808080804E
:10044000024757C02040304020C006425250A0FF13
:1004500011241FBECFEFD8E0DEBFCDBF11E0A0E07A
:10046000B1E0E2E3F7E202C005900D92A43CB107CF
:10047000D9F722E0A4ECB1E001C01D92A939B2077E
:10048000E1F769D20C949713BBCDCF92EF920F9303
:10049000CF93DF931F92CDB7DEB764E081E03ED605
:1004A000082F65E081E03AD6282F67E081E02983B4
:1004B00035D6482FCC24CA94EE24EA9429816BE6E1
:1004C00071E084E592E00E94D20C0F90DF91CF9111
:1004D0000F91EF90CF900895E1E6F0E080E88083FF
:1004E00010820895EF92FF920F9384E592E00E94AC
:1004F0007C0E6BE271E084E592E00E948C0A2DE7AD
:1005000031E047E36AE084E592E00E94ED0A8CE77F
:10051000E82E80E0F82E00E224E040E066E484E586
:1005200092E06BD40CE323E04DE263E084E592E0DB
:100530000E940E0B2BE74CE363E084E592E00E94FF
:100540000E0B0DE22BE74CE36BE784E592E00E9493
:100550000E0B23E04DE26BE784E592E00E940E0B68
:1005600084E592E00E94500F24E931E04AE064E023
:1005700084E592E00E94ED0A2BE931E044E16AE073
:1005800084E592E00E94ED0A84E592E00E94680F03
:100590000F91FF90EF9008950F930FE320E040E05C
:1005A00060E084E592E00E940E0B00E02FE740E05F
:1005B00060E084E592E00E940E0B0FE32FE74FE32B
:1005C00060E084E592E00E940E0B2FE740E06FE7C9
:1005D00084E592E00E940E0B0F91089584E592E06D
:1005E0000E947C0E6BE271E084E592E095D7D4DF47
:1005F00084E592E00E94500F20EA31E042E16EE093
:1006000084E592E0EAD784E592E00E94680F29EA47
:1006100031E047E36FE084E592E0DFD72EEB31E095
:100620004DE362E384E592E0D8C7A0E0B0E0EBE1FF
:10063000F3E00C94CF1120E5E22E22E0F22E8701A8
:10064000970144EC51E068EC71E08CEC91E012D33E
:100650008090C8019090C901A090CA01B090CB01D0
:100660006091CC017091CD018091CE019091CF012C
:100670002091040121110CC084E090E090930301CB
:1006800080930201909301018093000181E0A3C057
:1006900020E030E040E051E40E942B130E946C12F5
:1006A000EB01E0900201F090030100910001109134
:1006B0000101380123E0620E711C4BE551E083E536
:1006C000482E81E0582EE9E3F1E092E0C92ED12CCA
:1006D000DA018D919D91AD01E816F90640F1D20144
:1006E0008D919C918E159F0510F11C161D067CF4B2
:1006F000808191819801281B390BC9019E012E5FD1
:100700003F4F2817390798F0EC01239710C0209726
:1007100071F0608171819B01201B310BC6018C1B24
:100720009D0B8217930718F0E301C61BD70B32E02D
:10073000430E511C329681E04336580749F6EFE1EB
:10074000F1E0A5E0B1E021913191C701821B930B4B
:100750006D917D91A801461B570B889F6001899F71
:10076000D00CD00C1124449FC001459F900D900DDA
:1007700011248C0D9D1D41975CF43093030120934F
:10078000020170930101609300011092040164C0A2
:1007900021E0E733F207B9F68091370190913801F3
:1007A000A701481B590B80911D0190911E019801D2
:1007B000281B390B449FB001459F700D700D11240B
:1007C000229FC001239F900D900D1124860F971F2B
:1007D000419724F482E0809304013EC020E030E0A1
:1007E00040E051E4C501B4010E942B130E946C1239
:1007F000FB01A701461B570B98012C1B3D0B1E1636
:100800001F0634F4453051055CF4F701339708C0F6
:10081000309731F04B3751051CF0F701EC57F109D7
:100820001C161D0634F42530310554F4E8012397D5
:1008300007C0209729F02A33310514F0E801EC971E
:10084000EE1AFF0AF0920301E09202010C1B1D0B4D
:100850001093010100930001CDB7DEB7E0E10C94E5
:10086000EB11EF92FF920F93CF93DF9385E0E82E89
:1008700081E0F82EF701408DCFE1D1E0688D01E0F5
:10088000040F21E0260F4150615084E592E0C6D666
:10089000F701408D688D0FEF040F21E0260F4F5FA9
:1008A000615084E592E0BAD6DF91CF910F91FF902D
:1008B000EF900895CF92DF92EF92FF920F93CF9334
:1008C000DF9384E592E00E947C0E66DEC3E5D1E012
:1008D00099E3C92E91E0D92E2BE5E22E21E0F22EEC
:1008E00028812296F6014081F2E0CF0ED11CF7015B
:1008F0006081F2E0EF0EF11C042F84E592E08ED6C9
:1009000081E0CB35D80761F7C5E0D1E08FE1E82E73
:1009100081E0F82E48812296F7016081F2E0EF0E27
:10092000F11C0FE023E084E592E0B1D381E0CF3108
:10093000D80781F796DF22E0409100016091020123
:1009400084E592E008D3DF91CF910F91FF90EF9073
:10095000DF90CF900895C0DD21D197DD2098289AAF
:10096000219A84E592E0C9D7BDDD84E592E0CAD73B
:100970008111FACF8AE090E04ED41899F2CF84E545
:1009800092E0BBD797DF84E592E0BCD78111FACF24
:100990004CDE80910401823091F784E592E0ADD77E
:1009A0001DDE84E592E0AED78111FACF8AE090E0B7
:1009B00032D4109204011899F0CFE1CF8F929F9218
:1009C000AF92BF92CF92DF92FF920F931F93CF937C
:1009D000DF9300D0CDB7DEB7182FF62E80ED498318
:1009E0005A830E947F0F812F0E94D40F8AE18A953B
:1009F000F1F700C081ED0E947F0F4981842E5A815A
:100A0000952ECF2CD12C00E010E05601E1E0AE1A7B
:100A1000B1080C151D0581F00A151B0519F40E947B
:100A20000F1002C00E94F50FF40180830F5F1F4F6B
:100A3000FFEF8F1A9F0AEDCF0E94C40F8F2D0F90EA
:100A40000F90DF91CF911F910F91FF90DF90CF908A
:100A5000BF90AF909F908F900895A2E0B0E0E3E345
:100A6000F5E00C94D911082F162F80ED49835A8395
:100A70000E947F0F802F0E94D40F4981042FE42E03
:100A80005A81F52E8E2D801B811730F4F70181914C
:100A90007F010E94D40FF6CF0E94C40F2296E6E099
:100AA0000C94F511662309F089CF80E00895AB011D
:100AB00061E084CFA1E0B0E0E0E6F5E00C94DD1168
:100AC0006983AE014F5F5F4F61E0C7DF2196E2E0CF
:100AD0000C94F911A2E0B0E0E0E7F5E00C94DA1133
:100AE000082F162FF42E1982BE016F5F7F4F2A83C5
:100AF000DEDF2A81882301F1E12FF0E0EF19F1090F
:100B0000319641E050E002C0440F551FFA94E2F7DD
:100B1000415051090E2E01C0440F0A94EAF701C05A
:100B2000220FEA95EAF7642F6095898168234223B2
:100B3000642B6983802FBEDF2296E5E00C94F611CA
:100B4000A2E0B0E0E6EAF5E00C94DB11182F062FE6
:100B5000BE016F5F7F4F4A83AADF99814A81442398
:100B600049F061E070E0002E01C0660F0A94EAF7D8
:100B7000692B09C021E030E0B90101C0660F0A9578
:100B8000EAF7609569236983812F94DF2296E4E078
:100B90000C94F71140E066E08BE6D2CF0E94790F0B
:100BA0002AE12A95F1F700C08FEF90E722E081500B
:100BB00090402040E1F700C00000ECDF8FE19EE4B0
:100BC0000197F1F700C0000021E043E062E08BE60E
:100BD00081DF23E043E062E08AE17CDF64E089E1D9
:100BE00069DF23E042E064E08BE174DF20E042E073
:100BF00064E08CE16FCFA0E0B0E0E1E0F6E00C94BF
:100C0000D3115C014B016A01E9014BE852E06EE04F
:100C10008BE348DFEBE8F2E02081818190E0922BCA
:100C2000D5018D939C932281838190E0922BD401F6
:100C30008D939C932481858190E0922BD6018D9396
:100C40009C932085818590E0922B998388832285CF
:100C5000838590E0922BD8018D939C932485858584
:100C600090E0922BF70191838083CDB7DEB7ECE063
:100C70000C94EF11ACE0B0E0E0E4F6E00C94CD11A0
:100C80003C014B015A016901280117011C861B8692
:100C90001A86198618861F821E821D821C821B825C
:100CA0001A821982CE0101967C018E010D5F1F4FC1
:100CB0009E012B5F3F4FAE01495F5F4FBE01675FF3
:100CC0007F4F0A9698DF6B857C85072E000C880B7A
:100CD000990B0E949F1220E030E040E858E30E9408
:100CE0002B13F301608371838283938369857A85F3
:100CF000072E000C880B990B0E949F1220E030E019
:100D000040E858E30E942B13F401608371838283CF
:100D100093836F817885072E000C880B990B0E94B6
:100D20009F1220E030E040E858E30E942B13F501C9
:100D300060837183828393836D817E81665D7F4F43
:100D4000072E000C880B990B0E949F1223E333E3BC
:100D500043E851E40E940412F601608371838283A8
:100D600093836B817C8169507109072E000C880B7D
:100D7000990B0E949F1223E333E343E851E40E945E
:100D80000412F201608371838283938369817A8183
:100D9000635E7F4F072E000C880B990B0E949F12F9
:100DA00023E333E343E851E40E940412F10160833A
:100DB0007183828393832C96E2E10C94E911A0E085
:100DC000B0E0E5EEF6E00C94D6116C01E62EB42E00
:100DD000F22EE8010BC0FE010491C6016E2D4B2DD1
:100DE00020E0A7D52196FA94F8E0EF0EFF2099F7BE
:100DF000CDB7DEB7E9E00C94F211A0E0B0E0E3E09B
:100E0000F7E00C94D3115C01862EC42E922ED02EC6
:100E1000C22FD0E09E0183E0220F331F8A95E1F7B5
:100E2000C50158D1882359F40CC0C501682D4C2D3B
:100E3000292D8701C4DFEC0EFD1EC394DA94DD205A
:100E4000A1F7CDB7DEB7ECE00C94EF11A0E0B0E075
:100E5000ECE2F7E00C94D811EC01162FF42ED22E10
:100E6000E0FE10C0622F610F402F4F192F2D2F5F12
:100E7000CE019AD66D2D6F0D402F411B212F2F5F74
:100E8000CE0192D6E1FE10C06D2D611B402F4F198F
:100E90002F2D2F5FCE0188D66D2D6F19402F411B4E
:100EA000212F2F5FCE0180D6E3FE0EC06D2D610F86
:100EB0002F2D2F5FCE01402F77D66D2D6F0D212F57
:100EC0002F5FCE01402F70D6E2FE0EC06D2D611B4C
:100ED0002F2D2F5FCE01402F67D6DF181F5FCE0169
:100EE0006D2D402F212F60D6CDB7DEB7E7E00C94F3
:100EF000F411A1E0B0E0EFE7F7E00C94D1113C0170
:100F0000862E942E2983A02E11E0121BB22EB194AE
:100F1000BB0C60E0422F282D092DEA2C97DFD980E9
:100F2000FF2483E0C82E11C017FD04C0DA9482E0CC
:100F3000B80E1B0DF3941C0DC3016F2D4D2D282DE4
:100F4000092DEA2C83DFE2E0CE0EFD1468F3219632
:100F5000EEE00C94ED11A0E0B0E0E1EBF7E00C94D2
:100F6000D711EC01F62EE42ED22EC02E822F8F5FE9
:100F7000082F10E0000F111F681B481BCE01202F07
:100F8000A9D0882331F0CE016F2D4E2D2D2D0C2DA3
:100F9000B0DFCDB7DEB7E8E00C94F311A0E0B0E02D
:100FA000E4EDF7E00C94D811EC01D62EF42E122FBC
:100FB000E0FE0CC0622F6D0D402F4F19CE01B1D451
:100FC000612F6F0D402F4D19CE01ABD4E1FE0CC047
:100FD000612F6D19402F4F19CE01A3D4612F6F19C6
:100FE000402F4D19CE019DD4E3FE0CC0612F6D0D35
:100FF000402F4F0DCE0195D4612F6F0D402F4D0D19
:10100000CE018FD4E2FE0CC0612F6D19402F4F0D21
:10101000CE0187D41F190D0DCE01612F402F81D431
:10102000CDB7DEB7E7E00C94F411A1E0B0E0EBE15E
:10103000F8E00C94D1113C01862E942E2983A02E29
:1010400011E0121BB22EB194BB0C60E0422F282D90
:10105000092DEA2CA3DFD980FF2423E0C22E11C082
:1010600017FD04C0DA9482E0B80E1B0DF3941C0D3A
:10107000C3016F2D4D2D282D092DEA2C8FDFE2E0C5
:10108000CE0EFD1468F32196EEE00C94ED11A0E075
:10109000B0E0EDE4F8E00C94D711EC01F62EE42E6C
:1010A000D22EC02E822F8F5F082F10E0000F111F4D
:1010B000681B481BCE01202F0DD0882331F0CE01B4
:1010C0006F2D4E2D2D2D0C2DB0DFCDB7DEB7E8E006
:1010D0000C94F3110F93FC014150040F4F5F94A93E
:1010E00086A9841718F0091728F402C0091798F088
:1010F000041788F46150260F6F5F93A985A986179E
:1011000018F0291718F005C0291728F080E02617D5
:1011100018F481E001C080E00F910895880F880FD6
:10112000880F860F0895A2E0B0E0E9E9F8E00C949A
:10113000DB11182F062F682F66956695669570E06F
:10114000660F771F6C5F7E4FCE01019642E050E044
:101150000E948E13E981FA81412F50E0002381F42F
:101160003FB7F89420814770507081E090E002C052
:10117000880F991F4A95E2F78095822380830EC0DD
:101180003FB7F89420814770507081E090E002C032
:10119000880F991F4A95E2F7282B20833FBF22969C
:1011A000E4E00C94F711FC01E60FF11D83A18F3FE1
:1011B00011F0642FB8CF0895A2E0B0E0E2EEF8E0BD
:1011C0000C94DC11182F682F66956695669570E073
:1011D000660F771F64507F4FCE01019642E050E0CA
:1011E0000E948E13E981FA812081177081E090E0DE
:1011F00002C0880F991F1A95E2F7282B20832296A8
:10120000E3E00C94F811FC01E60FF11D83A18F3F80
:1012100009F0D2CF08952EEC37E004C0F9013197E0
:10122000F1F701970097D1F7089582E090E00197D8
:10123000F1F7089584E190E00197F1F70895A0E0B7
:10124000B0E0E5E2F9E00C94D3117C01EB01C42E8F
:1012500049018AE0481729F0E5E14E1709F04EC030
:1012600009C0C70143E0F5D6C701BE0144E151E022
:101270002FD744C00A811B81C70140E010D7C701A6
:10128000BE0141E0EFD6F801D2800681178190E7D8
:10129000A92EB12CA00EB11EC701BE0140E0FFD6A1
:1012A000C701BE014EE304D7FFE1FD1548F04D2D07
:1012B0004068C701BE01FCD6C701BE0140E809C0B5
:1012C0004D2D40524068C701BE01F2D6C701BE0194
:1012D00048E8EED6C701BE0141E0E1D6C701BE0134
:1012E00040E19801EED60A151B0521F0005F1F4F63
:1012F000D394D2CFC701BE0140E0B4D6C701BE012E
:101300004C2D9401DFD3CDB7DEB7ECE00C94EF1198
:10131000FC01E60FF11D8491382F20E03196E49115
:101320002E0F311DC9010895FC0184910895FCDF41
:10133000882321F0823011F083E0089586E008953B
:1013400066E0E6CF089568E0E3CF0895FC013A96A1
:10135000E4918E2F0895FC013B96E4918E2F089521
:10136000A0E0B0E0E6EBF9E00C94D411EC01C62E5D
:10137000FC80ED800F2D1E2D8F2D9E2DD5DFB82EDC
:101380008F2D9E2DD4DF982E81E0B81619F48FE0B2
:10139000A82E02C0AA24AA948F2D9E2DDCDFD82E61
:1013A00080E68C1550F48F2D9E2DCDDF009729F00F
:1013B000F801E80FF91F81E612C080E48C1550F4A3
:1013C0008F2D9E2DBDDF009729F0F801E80FF91F42
:1013D00081E405C08F2D9E2DB9DFF8017196DC14D4
:1013E00008F445C0D81608F442C0282F492D50E013
:1013F00094919F3F11F4319636C02C1509F02BC003
:10140000BB2019F082E0B81681F484918B8B319661
:1014100084918C8B32968491888B31968491898BC0
:101420003196849135978A8B29C0892F8F7082508D
:101430008A8B92959F70998B31968491982F9F708B
:101440009C8B82958F708B8B31968491329782958D
:101450008F70888B13C03296849132978A21E80F5F
:10146000F11DE40FF51F2D1511F02F5FC1CF188A64
:101470001B8A1C8A198A1A8AE0E0F0E0CF01CDB7F6
:10148000DEB7EBE0ADC7DC011496ED91FC9115974A
:10149000309709F438C057968C915797882339F4C0
:1014A0003596849158968C93589737960AC0813018
:1014B00011F43F9601C03D96849158968C935897AD
:1014C0003196849159968C93599758968C91589748
:1014D000282F332727FD309559968C9159979927B6
:1014E00087FD9095281B390B5A968C915A9780341A
:1014F00041F0289F9001112496E0369527959A9502
:10150000E1F75B962C93089580E0089524E83AE093
:10151000FC01368B258B0895CF93DF93EC018C81F2
:101520009D818617970741F07D836C83CE01ABDFE9
:1015300084E89AE09E8B8D8BDF91CF910895A0E097
:10154000B0E0E4EAFAE02BC77C01062FB42E622F4C
:1015500007DFEC01009711F480E03BC0F701C48085
:10156000D580138974888188800E82899B2C971876
:10157000981AC701682D492D212F072DABDD88232F
:1015800031F1C601D4DE67E0A62EA10EA694A69482
:10159000A6946E01C80ED11CBB244A2C552410C041
:1015A000FE010491C701612F462D20E0C2D1219692
:1015B000185F9E012C192A1598F3C40CD51CB394FE
:1015C0006B2C690CB71418F4182DE601F2CFF70153
:1015D0008089CDB7DEB7E0E1FEC6A0E0B0E0E2EF83
:1015E000FAE0E6C68C01D62EE42EE901DC01559620
:1015F000ED91FC9156970995E80EFF2407C0C801AC
:101600006D2D4E2D9CDFD80EF80E219628812223B9
:10161000B1F78F2DCDB7DEB7E7E0E6C6A0E0B0E0CA
:10162000E3E1FBE0C2C6EC01122F261718F4D62E18
:10163000D21A02C0D22ED61A041718F4C42EC01A19
:1016400002C0C02EC41ADC1460F4842F462F682F09
:10165000802F012F182F8C2DCD2CD82EAA24A394A7
:1016600001C0AA24161730F4812F162F682F802F5F
:10167000042F482F401718F0BB24BA9402C0BB2493
:10168000B3941F3F09F41EEFFD2CF694062FE42EB1
:1016900010C0AA2021F4CE01602F4E2D03C0CE0130
:1016A0006E2D402F3ED1FC18F7FE02C0EB0CFD0C56
:1016B0000F5F101770F7CDB7DEB7EAE092C6FB01F7
:1016C000A081B181FD0109950895EF92FF920F93DA
:1016D0001F938C017B01DC01D196ED91FC91D29797
:1016E00082E00995D701ED91FC91C801B7014AE06C
:1016F00020E030E00995F82ED801D196ED91FC91CB
:10170000D29783E00995D801D196ED91FC91D297BB
:1017100080E009958F2D1F910F91FF90EF90089514
:10172000EF92FF920F931F938C017B01DC01D19606
:10173000ED91FC91D29782E00995D801D196ED9177
:10174000FC91D29781E00995D701ED91FC91C801F8
:10175000B70144E120E030E0099598012D5C3F4F4E
:10176000D701ED91FC91C801B70147E10995D80176
:10177000D196ED91FC91D29780E009951F910F9140
:10178000FF90EF900895FF920F931F93CF93DF93F5
:10179000EC018B01E9A9FAA982E00995E9A9FAA966
:1017A00081E00995D801ED91FC91CE01B80145E1A8
:1017B00020E030E00995F82E882351F09E012D5C41
:1017C0003F4FD801ED91FC91CE01B80147E1099559
:1017D000E9A9FAA980E009958F2DCDB7DEB7E5E03C
:1017E00005C60F931F93FC01DB01448F258F0D91DC
:1017F0001C9142E37C969F01F80109951F910F917E
:101800000895EF920F93CF93DF93FC01448F258FC0
:10181000078FE68EEB01A881B9814BE37C969F018F
:10182000FD010995DF91CF910F91EF900895A1E00F
:10183000B0E0ECE1FCE0C1C5FB01A081B18146E470
:101840009E012F5F3F4FFD01099589812196E2E0BE
:10185000D0C5A1E0B0E0EEE2FCE0AFC5FB01A081A5
:10186000B18147E49E012F5F3F4FFD0109958981BA
:101870002196E2E0BEC5FB01A081B18148E420E0F1
:1018800030E0FD01099508950F931F938C01DC0151
:1018900012966D917C911397CADFF8018083628163
:1018A0007381C801D6DFD80111968C9311971296D7
:1018B0006D917C911397C801DEDFF8018387028068
:1018C000F381E02DA081B181C801BF0147E10D5C2A
:1018D0001F4F9801FD0109951F910F910895CF9316
:1018E000DF93EC016A817B81F0DE882319F0CE0161
:1018F000CBDF81E0DF91CF910895FC01628173819C
:101900000FCF0895CF93DF93EC01EE85FF853097DD
:1019100009F009956A817B81CE0135DFDF91CF9196
:101920000895FC01362F242F62817381432F59CFF4
:101930000895EF920F93FC01362F542FA22FE02E23
:1019400062817381432F252F0A2F5BDF0F91EF9068
:1019500008951F93CF93DF93EC011D821C821F8299
:101960001E82198681E0888782E28A871F861E860A
:10197000FE01B39680E09FEF91938F5F8E30E1F789
:1019800011E018A3CE01C2DD1F8B188E198E80E4E2
:101990008A8F1B8E88E79FE09AAB89ABDF91CF914E
:1019A0001F9108958F929F92AF92BF92CF92EF9224
:1019B000FF920F931F935C014B01142FF22EC9DF8E
:1019C000F5019382828217A3F0A605A3E4A2C3A225
:1019D000C50185DF1F910F91FF90EF90CF90BF90D1
:1019E000AF909F908F900895FC01A681B78185816B
:1019F0008695869586959281491B489F402D112496
:101A0000A40FB11D362F377080E890E002C0959585
:101A100087953A95E2F7669566956695A60FB11D8E
:101A20003C91222311F0382B02C0809538233C933F
:101A30000895FC01DB0111964C91119782814817A2
:101A400058F08381841740F06C918581681720F4E9
:101A5000CF0114962C91C8CF0895CF92DF92FF92B8
:101A60000F931F93CF93DF936C01EB01FA808B816F
:101A7000813061F0813028F0823059F0833019F4E0
:101A80000AC001E001C000E010E007C000E011E082
:101A900004C00FEFF9CF00E01FEFF7FE03C0C6014F
:101AA000BE01C7DF8881800F88838981810F898388
:101AB000FF0C99F7DF91CF911F910F91FF90DF906D
:101AC000CF9008950F931F93CF93DF93FB0189016C
:101AD000C281D3814233C1F0433338F44531E9F058
:101AE000473111F1443149F513C0463409F1473407
:101AF00009F14B3311F5CE01B9013FD48823E9F048
:101B0000CE01B801AADF19C0CE01B90192DF15C01C
:101B1000CE0101D4CE01E2D310C0CE01E6D388239A
:101B200069F0CE01F8D309C0CE01B90116D405C0C1
:101B30008D8101C08981F801808381E0DF91CF919F
:101B40001F910F910895A0E0B0E0E8EAFDE02FC4F6
:101B5000EC01C62ED42EE22EF42E122F09C0CE0197
:101B60006C2D4F2D21E00FEFE4DE185088E0F80EC9
:101B70001830A8F79E2D97704E2D487F4D0D992354
:101B800079F087E098279F5F97700FEF10E002C011
:101B9000000F111F9A95E2F7CE016C2D21E0C9DEEE
:101BA000CDB7DEB7E8E01FC4EF92FF920F931F930B
:101BB000CF93DF93EC01162FF42EE22E21E00E2DB1
:101BC00089DA882329F0CE01612F4F2D2E2DBBDF1E
:101BD000CDB7DEB7E6E009C480E00895AF92BF92CA
:101BE000CF92DF92FF920F931F93CF93DF936C01FD
:101BF000FB01F42EE901A280B38082E3481709F4C7
:101C000048C0841760F08CE2481709F442C08DE2A6
:101C1000481709F44EC087E1481759F410C086E40C
:101C2000481771F187E4481779F18BE3481709F4F5
:101C300040C0C601B5014F2D9E0141DD53C0C60114
:101C4000B50147E13CDDC601B501F1DDFA80F09454
:101C5000F80EC601B501EBDD08810095080FC6013D
:101C6000B501F7DD1B811095180FC601B501F1DD37
:101C700099819095980F9B8319830A83F88231C0CC
:101C8000C601B501D4DD03C0C601B501E2DD88831C
:101C900028C0C601B501DDDD082F19811095C601E8
:101CA000B501C5DD98819095980F9883100F198321
:101CB00013C0C601B501CDDD082F19811095C601ED
:101CC000B501B5DD98819095980F9883100F198311
:101CD0008B818E5F83708B83C601B5014F2D9E0172
:101CE000EEDC81E0DF91CF911F910F91FF90DF90AB
:101CF000CF90BF90AF900895FC018281938121E045
:101D00008137920741F0909374018093730181E7CA
:101D100091E0938382838EEE9DE090937201809395
:101D20007101CF01B1CD0895A0E0B0E0E9E9FEE096
:101D300039C35C01FB01E901828093804B3309F4D4
:101D40004DC04C3328F44731A1F0423329F421C06F
:101D5000463439F0473441F0C501B4019E01AFDC8F
:101D60009BC0B40164DD02C0B40173DD8695888335
:101D700092C0B40147E1A3DC8881869588838A817B
:101D800086958A838981869589838B8186958B83C5
:101D900082C0E880FF24EE0CFF1CDE2C098110E0DD
:101DA000000F111FC02EE8820983B40142E387DCD3
:101DB000D394D8820983C501B40142E39E017FDC3C
:101DC000C394D882C982C501B40142E39E0177DC85
:101DD000E882C982C501B40142E35BC09A817B807D
:101DE00000E010E080E0000F111F000F111F97FDB1
:101DF00003608F5F883011F0990FF5CF8881282F0D
:101E000030E0220F331FD22E898190E0880F991F76
:101E1000E82E70FE04C0CD2CC394F82E03C0F82E1B
:101E2000F394C22E1A83D882E9827B82C501B40161
:101E30004BE39E0144DCC882F9827B82C501B40178
:101E40004BE39E013CDC0A8381E0781659F078165A
:101E500038F082E0781641F083E0781661F408C02B
:101E600088E003C088E005C088EFD80EC80E03C024
:101E700088EFE80EF80ED882E9827B82C501B401B2
:101E80004BE39E011CDCC882F9827B82C501B40150
:101E90004BE39E0114DC81E0CDB7DEB7EDE09EC2DE
:101EA000FC018281938121E08737920741F0909372
:101EB0007A018093790187E791E09383828384E9B3
:101EC0009EE09093780180937701CF01DDCC089557
:101ED000FC01A281B38181E0A737B80741F41296D3
:101EE0008D919C91139793838283CF01CDCC0895DC
:101EF00008951092B90082E08093B8000895982F59
:101F000084EA8093BC002FEF30E040E050E0809105
:101F1000BC0087FF07C0211531054105510509F4B3
:101F200031C005C0215031094109510980F7809124
:101F3000B900887F883011F0803121F59093BB0083
:101F400084E88093BC002FEF30E040E050E08091C7
:101F5000BC0087FF06C0211531054105510591F0F0
:101F600005C0215031094109510988F79091B90004
:101F7000987F983111F480E0089580E0903419F052
:101F800081E0089581E0089584E98093BC0020E019
:101F900030E08091BC0084FF06C02F5F3F4F81E09E
:101FA00020303807B1F708958093BB0084E8809310
:101FB000BC002FEF30E040E050E08091BC0087FF94
:101FC00006C0211531054105510561F005C02150BC
:101FD00031094109510988F78091B90090E0887F63
:101FE000883209F091E0892F089584EC8093BC0039
:101FF0002FEF30E040E050E08091BC0087FF07C049
:10200000211531054105510539F480E0089521502D
:1020100031094109510980F78091BB00089584E896
:102020008093BC002FEF30E040E050E08091BC0096
:1020300087FF07C0211531054105510539F480E0BE
:102040000895215031094109510980F78091BB0061
:102050000895FB010480F581E02D61E020E030E08F
:1020600009950895FB010480F581E02D63E020E0EF
:1020700030E009950895FB010480F581E02D64E0CE
:1020800040E020E030E009950895FB010480F581EF
:10209000E02D64E041E020E030E009950895FB0187
:1020A0000480F581E02D62E020E030E0099508959C
:1020B000FB010480F581E02D65E020E030E009952A
:1020C0000895FB010480F581E02D66E009950895EF
:1020D000A0E0B0E0EDE6F0E16AC17C01EB016A014D
:1020E00000E0F6011491002359F41F3F11F401E0C0
:1020F0003DC0C701BE01412FDBDF8823B9F53AC0DF
:102100001F3F39F4C701BE014FEFD2DF882369F5C5
:1021100031C01E3F11F481E02EC0103F30F5103E5B
:1021200030F01F70C701BE01412FB9DF1EC0103D46
:1021300030F01F70C701BE01412F94DF16C0103C64
:1021400068F0C701BE0197DF1295107F1E5F812FD7
:1021500090E061D8C701BE0198DF04C01E3B28F49F
:1021600017FD03C0812F90E056D800E00894C11CF1
:10217000D11CB7CF80E0CDB7DEB7E8E034C10F9314
:102180001F93CF93DF93EC01062F18E0402F407888
:10219000CE0165E008D8000FCE0164E041E003D82D
:1021A00044D8CE0164E040E00E94D3083ED81150EC
:1021B00069F7DF91CF911F910F9108951F93CF93EE
:1021C000DF93EC01142F662311F468EF03C0613034
:1021D00011F46AEFD4DF612F607FCE01D0DF12955A
:1021E000107FCE01612FCBDF25D824D823D822D869
:1021F000DF91CF911F910895EF92FF920F931F935C
:10220000CF93DF93EC01F42E643091F1653040F40C
:10221000623081F1633080F5613009F05AC008C046
:102220006630C9F1663090F1673009F052C042C0A3
:1022300064E00E940309CE0165E00E940309CE011B
:1022400062E00E940309CE0160E00E940309CE0112
:1022500064E040E00E94D308CE0165E040E00E94C7
:10226000D308CE0162E040E00E94D3081EA231C034
:1022700060E006C04EA32DC0442329F462E040E094
:102280000E94D30826C062E041E0FACF6EA196DF3B
:1022900082E08EA31EC0890192E0E92E08C0F801F9
:1022A00041918F01CE016EA189DFEEA2FA94FF2049
:1022B000B1F70FC0890182E0E82E09C0F80144910E
:1022C000CE016EA17BDFEEA20F5F1F4FFA94FF20BD
:1022D000A9F781E0CDB7DEB7E6E087C0FC01128246
:1022E00080818150838314820895FC012081828142
:1022F000820F82839181891710F080E00895848194
:102300008F5F84838381820F891710F0892F81501A
:10231000838381E00895FC01A681B78185819D01B9
:10232000280F311DC9011D92A817B907E1F70895BB
:10233000FC0120E08381861708F021E030E08281F3
:10234000481708F031E090E0461708F491E0892F33
:102350008223922B9323892B0895DC01FB011082A9
:1023600012968C911297818315968C9115978150B6
:10237000828313968C9183830895FB01618123816D
:10238000213021F0233029F0462F05C0462F485F29
:1023900002C0462F6850CCCF08952F923F924F92A3
:1023A0005F926F927F928F929F92AF92BF92CF92E5
:1023B000DF92EF92FF920F931F93CF93DF93CDB7EE
:1023C000DEB7CA1BDB0B0FB6F894DEBF0FBECDBF66
:1023D00009942A88398848885F846E847D848C8437
:1023E0009B84AA84B984C884DF80EE80FD800C8140
:1023F0001B81AA81B981CE0FD11D0FB6F894DEBF23
:102400000FBECDBFED0108950CD0EBC0E3D040F07E
:10241000DAD030F021F45F3F19F0CCC0511115C172
:10242000CFC0F0D098F39923C9F35523B1F3951B8E
:10243000550BBB27AA2762177307840738F09F5FE5
:102440005F4F220F331F441FAA1FA9F333D00E2E54
:102450003AF0E0E830D091505040E695001CCAF7C1
:1024600029D0FE2F27D0660F771F881FBB1F261786
:1024700037074807AB07B0E809F0BB0B802DBF0159
:10248000FF2793585F4F2AF09E3F510568F092C096
:10249000DCC05F3FECF3983EDCF38695779567955B
:1024A000B795F7959F5FC9F7880F911D969587950A
:1024B00097F90895E1E0660F771F881FBB1F621729
:1024C00073078407BA0720F0621B730B840BBA0BE7
:1024D000EE1F88F7E095089504D06894B111B5C057
:1024E000089598D088F09F5790F0B92F9927B75149
:1024F000A0F0D1F0660F771F881F991F1AF0BA95C8
:10250000C9F712C0B13081F09FD0B1E008959CC0EE
:10251000672F782F8827B85F39F0B93FCCF38695BD
:1025200077956795B395D9F73EF49095809570951A
:1025300061957F4F8F4F9F4F0895E89409C097FB97
:102540003EF490958095709561957F4F8F4F9F4F8A
:102550009923A9F0F92F96E9BB279395F6958795CE
:1025600077956795B795F111F8CFFAF4BB0F11F491
:1025700060FF1BC06F5F7F4F8F4F9F4F16C0882338
:1025800011F096E911C0772321F09EE8872F762F6E
:1025900005C0662371F096E8862F70E060E02AF0AF
:1025A0009A95660F771F881FDAF7880F969587959B
:1025B00097F9089597F99F6780E870E060E00895C3
:1025C0009FEF80EC089500240A941616170618064B
:1025D0000906089500240A94121613061406050627
:1025E0000895092E0394000C11F4882352F0BB0FB8
:1025F00040F4BF2B11F460FF04C06F5F7F4F8F4F1B
:102600009F4F089557FD9058440F551F59F05F3F55
:1026100071F04795880F97FB991F61F09F3F79F004
:1026200087950895121613061406551FF2CF469586
:10263000F1DF08C0161617061806991FF1CF869508
:102640007105610508940895E894BB2766277727EC
:10265000CB0197F908950BD0C4CFB5DF28F0BADFCE
:1026600018F0952309F0A6CFABCF1124EECFCADF27
:10267000A0F3959FD1F3950F50E0551F629FF00195
:10268000729FBB27F00DB11D639FAA27F00DB11DEE
:10269000AA1F649F6627B00DA11D661F829F222777
:1026A000B00DA11D621F739FB00DA11D621F839FFE
:1026B000A00D611D221F749F3327A00D611D231FD4
:1026C000849F600D211D822F762F6A2F11249F5722
:1026D00050408AF0E1F088234AF0EE0FFF1FBB1F45
:1026E000661F771F881F91505040A9F79E3F5105E4
:1026F00070F060CFAACF5F3FECF3983EDCF3869595
:1027000077956795B795F795E7959F5FC1F7FE2B8E
:10271000880F911D9695879597F90895FB01DC0127
:1027200002C005900D9241505040D8F70895F8949A
:02273000FFCFD9
:10273200040004000106000A0006001D001D001628
:10274200001E0016002B00310034003B003B00232A
:10275200004B00700078006400500025000A005C05
:1027620000790007000F007800110022002C0036CB
:102772000000000000000000000000000000000057
:102782000000005A007F0058007F0000001900007E
:10279200001900084000000080D0011F096301FCFD
:1027A20010EC0D00000000940E0000000050726555
:1027B200737320627574746F6E20746F207374610A
:1027C200727420005465657465720042414C4C007D
:1027D200596F752077696E2100507265737320629C
:1027E2007574746F6E20746F20706C61790061670C
:0427F20061696E00AB
:00000001FF
