:1000000020C200003AC2000038C2000036C2000020
:1000100034C2000032C2000030C200002EC2000014
:100020002CC200002AC2000028C2000026C2000024
:1000300024C2000022C2000020C200001EC2000034
:100040001CC200001AC2000018C2000016C2000044
:1000500014C2000012C2000010C200000EC2000054
:100060000CC200000AC200000D11301132112E1115
:100070003C110B110911000FF000003FFC0000FFC4
:100080000F0000F8078007C03FE00F80FFF00F036C
:10009000FFF01E07FFF83C1FFFFC383FFFFC783FD6
:1000A000FFFE707FFFFE61FFFFFEE1FFFFFFC7FF66
:1000B000FFFFCFFFFFFFFFFFFFFFFFFFFFFFFFFF80
:1000C000FFFF7FFFFFFE7FFFFFFE7FFFFFFE3FFF83
:1000D000FFFC3FFFFFFC1FFFFFF80FFFFFF00FFFCC
:1000E000FFF007FFFFE001FFFF0000FFFF00003F00
:1000F000FC000003E0000000250028002B000000A9
:10010000240027002A00FFD0FFE0FFCFFF64FFD1CB
:10011000FF32380C060201FF64FFD0FFFE01050824
:1001200000FF0601210235207FFF07FF06FF0900BF
:1001300050221656808080800080153353A0A0A0E6
:100140000257575050F850F850500257572070A09F
:100150007028702013355580A040A02002475740DA
:10016000A0A040A0A05025135380808012265640A6
:10017000808080804012265680404040408002456A
:10018000559060F060900255552020F820201133E2
:1001900053604080044151F011335340E040024627
:1001A0005610102040808012365640A0A0A0A040DB
:1001B00012365640C0404040E00246566090106003
:1001C00080F0024656F02060109060024656206093
:1001D000A0F02020024656F080E0109060024656C3
:1001E0006080E0909060024656F01020204040026F
:1001F00046566090609090600246566090907010F5
:1002000060122555C0C000C0C01136566060006045
:100210004080123656204080804020034353F00037
:10022000F012365680402020408012365640A020E2
:10023000400040015858304898A8A89040300246E5
:1002400056609090F09090024656E090E09090E0DA
:10025000024656609080809060024656E0909090F2
:1002600090E0024656F080E08080F0024656F08032
:10027000E0808080024656609080B09060024656D2
:100280009090F0909090123656E040404040E0024E
:10029000465670202020A04002465690A0C0A0A044
:1002A000900246568080808080F002465690F0F0A2
:1002B00090909002465690D0F0B0B09002465660B2
:1002C0009090909060024656E09090E080800147C8
:1002D00057609090D0B06010024656E09090E09049
:1002E00090024656609040209060123656E04040A2
:1002F0004040400246569090909090600246569042
:100300009090906060024656909090F0F090024677
:100310005690906060909002565688885020202019
:10032000024656F010204080F0123656E080808061
:1003300080E0024656808040201010123656E020A1
:10034000202020E016325240A0014151F0162252E6
:100350008040024454709090700246568080E09035
:1003600090E0123454608080600246561010709005
:10037000907002445460B0C060024656205040E085
:10038000404001455560907010600246568080E004
:100390009090901236564000C04040E011375720F0
:1003A00000202020A040024656808090E0909012CD
:1003B0003656C040404040E0025454D0A8A8A8029D
:1003C0004454E090909002445460909060014555F0
:1003D000E090E08080014555709070101002445408
:1003E000A0D0808012345460C020C00246564040E5
:1003F000E040502002445490909070123454A0A0D9
:10040000A04002545488A8A85002445490606090C0
:100410000145559090709060024454F02040F002E5
:100420004757304020C020403022165680808080C0
:100430008080024757C02040304020C006425250C2
:10044000A0FF11241FBECFEFD4E0DEBFCDBF11E06F
:10045000A0E0B1E0E0E6F8E202C005900D92A23C17
:10046000B107D9F722E0A2ECB1E001C01D92A73993
:10047000B207E1F7AED20C942E14C2CDCF92EF9218
:100480000F93CF93DF931F92CDB7DEB764E081E087
:100490009AD4082F65E081E096D4282F67E081E0A8
:1004A000298391D4482FCC24CA94EE24EA9429813C
:1004B00061E671E082E592E00E940F0B0F90DF9100
:1004C000CF910F91EF90CF900895E1E6F0E080E8B2
:1004D0008083108208950F930FE320E040E060E0F6
:1004E00082E592E035D700E02FE740E060E082E56A
:1004F00092E02ED70FE32FE74FE360E082E592E032
:1005000027D72FE740E06FE782E592E021D70F91F0
:100510000895EF92FF920F9382E592E00E94390DC9
:100520006DE171E082E592E000D72BE731E047E32F
:100530006AE082E592E074D686E7E82E80E0F82E45
:1005400000E224E040E066E482E592E09AD20CE327
:1005500023E04DE263E082E592E0FAD62BE74CE33C
:1005600063E082E592E0F4D60DE22BE74CE36BE723
:1005700082E592E0EDD623E04DE26BE782E592E082
:10058000E7D682E592E00E94200E22E931E04AE0BF
:1005900064E082E592E044D629E931E044E16AE092
:1005A00082E592E03DD682E592E00E94110E0F9125
:1005B000FF90EF900895CF93DF93EC0182E592E0F6
:1005C0000E94390D6DE171E082E592E0AED683DFE5
:1005D00082E592E00E94200ECD2B39F02EE931E029
:1005E00042E16EE082E592E01BD682E592E00E9455
:1005F000110E27EA31E047E36FE082E592E010D682
:100600002CEB31E04DE362E382E592E009D6DF9125
:10061000CF910895A0E0B0E0E0E1F3E00C944C123B
:10062000C9E3D1E030E4C32E32E4D32E3FE0E32E21
:10063000F12C0AE010E02881398140E050E0C70148
:10064000B6010E942012299AC90137FD019695959D
:10065000879520E030E0281739073CF445E04A95BB
:10066000F1F700002F5F3F4FF6CF299820E030E0F0
:10067000281739073CF445E04A95F1F700002F5F51
:100680003F4FF6CF01501109B1F6229681E0C934EF
:10069000D80779F6CDB7DEB7E8E00C946812A0E091
:1006A000B0E0E5E5F3E00C9444122EE4E22E22E003
:1006B000F22E8701970142EC51E066EC71E08AEC82
:1006C00091E00E947F0F8090C6019090C701A0909A
:1006D000C801B090C90120E030E040E251E46091EF
:1006E000CA017091CB018091CC019091CD010E9403
:1006F000C2130E940313EB018091040181110FC00A
:1007000084E090E0909303018093020190930101B3
:100710008093000181E0809304017CDFDBC0E090E6
:100720000201F090030100910001109101013801D4
:1007300023E0620E711C49E551E081E5482E81E01D
:10074000582EE9E4F1E092E0C92ED12CDA018D9126
:100750009D91AD01E816F90640F1D2018D919C9171
:100760008E159F0510F11C161D067CF48081918169
:100770009801281B390BC9019E012E5F3F4F281796
:10078000390798F0EC01239710C0209771F0608131
:1007900071819B01201B310BC6018C1B9D0B8217A5
:1007A000930718F0E301C61BD70B32E0430E511C30
:1007B000329681E04136580749F6EFE1F1E0A5E0D5
:1007C000B1E021913191C701821B930B6D917D9115
:1007D000A801461B570B889F6001899FD00CD00C45
:1007E0001124449FC001459F900D900D11248C0D44
:1007F0009D1D41975CF43093030120930201709397
:100800000101609300011092040164C021E0E7330C
:10081000F207B9F68091370190913801A701481B82
:10082000590B80911D0190911E019801281B390BD5
:10083000449FB001459F700D700D1124229FC0018F
:10084000239F900D900D1124860F971F419724F43C
:1008500082E0809304013EC020E030E040E251E4B9
:10086000C501B4010E94C2130E940313FB01A7013A
:10087000461B570B98012C1B3D0B1E161F0634F40C
:10088000453051055CF4F701339708C0309731F0DB
:100890004B3751051CF0F701EC57F1091C161D06EA
:1008A00034F42530310554F4E801239707C020972C
:1008B00029F02A33310514F0E801EC97EE1AFF0A0B
:1008C000F0920301E09202010C1B1D0B1093010139
:1008D00000930001CDB7DEB7E0E10C946012EF9217
:1008E000FF920F93CF93DF9385E0E82E81E0F82EFF
:1008F000F701408DCFE1D1E0688D01E0040F21E0E8
:10090000260F4150615082E592E022D5F701408DDB
:10091000688D0FEF040F21E0260F4F5F615082E5D5
:1009200092E016D5DF91CF910F91FF90EF9008954F
:10093000CF92DF92EF92FF920F93CF93DF9382E5F6
:1009400092E00E94390DC7DDC1E5D1E099E4C92EDE
:1009500091E0D92E29E5E22E21E0F22E288122967F
:10096000F6014081F2E0CF0ED11CF7016081F2E088
:10097000EF0EF11C042F82E592E0EAD481E0C93544
:10098000D80761F7C5E0D1E08FE1E82E81E0F82ECD
:1009900048812296F7016081F2E0EF0EF11C0FE032
:1009A00023E082E592E063D181E0CF31D80781F77F
:1009B00096DF22E0409100016091020182E592E021
:1009C000A8D1DF91CF910F91FF90EF90DF90CF9062
:1009D00008957BDD0E94160F51DD2098289A219AF8
:1009E00082E592E045D695DD82E592E045D681111B
:1009F000FACF8AE090E03DD21899F2CF82E592E0FA
:100A000037D696DF82E592E037D68111FACF47DEFE
:100A100080910401823091F7C1E0D0E082E592E05C
:100A200027D6CE01C8DD82E592E026D68111F9CF26
:100A30008AE090E01ED281E0C82710920401189944
:100A4000EDCFDCCFA0E0B0E0E8E2F5E00C944B1293
:100A50006C01D62FB42EC22F7801CC2369F0F70198
:100A6000049120E04B2D6D2FC6011CD6FFEFEF1A2D
:100A7000FF0AC150D85FF1CFCDB7DEB7E9E00C94E3
:100A80006712A0E0B0E0E7E4F5E00C9448125C01E6
:100A9000C62EC42FD22ED02F220F220F220F5AD1B2
:100AA000882379F0DC0F8D2C912CCD1751F0870124
:100AB0002D2D4C2F6C2DC501C5DFE80CF91CCF5F27
:100AC000F4CFCDB7DEB7ECE00C946412CF92DF9296
:100AD000EF920F931F93CF93DF936C01D62F142FB8
:100AE000C22FE0FE0BC0402F411B622F6D0FD3D5EC
:100AF000402F4D1B612F6C0FC601CDD5E1FE0CC000
:100B0000402F411B6C2F6D1BC601C5D5402F4D1BBF
:100B10006C2F611BC601BFD5E3FE0CC0402F410FF7
:100B20006C2F6D0FC601B7D5402F4D0F612F6C0F85
:100B3000C601B1D5E2FE0CC0402F410F6C2F6D1BDA
:100B4000C601A9D5402F4D0F6C2F611BC601A3D53F
:100B5000DF91CF911F910F91EF90DF90CF9008958B
:100B6000CF92DF92EF920F931F93CF93DF936C019D
:100B7000C62F142FD22FE0FE0FC021E0240F402FEC
:100B8000411B6D2F6C0FC9D621E02C0F402F4C1B41
:100B9000612F6D0FC601C1D6E1FE10C021E0210F0B
:100BA000402F411B6D2F6C1BC601B7D621E02C0FC7
:100BB000402F4C1B6D2F611BC601AFD6E3FE0EC04C
:100BC00021E0210F402F6D2F6C0FC601A6D621E02A
:100BD0002C0F402F612F6D0FC6019FD6E2FE0EC075
:100BE00021E0210F6D2F6C1B402FC60196D621E00E
:100BF0002C0F6D2F611B402FC6018FD6DF91CF9137
:100C00001F910F91EF90DF90CF900895A0E0B0E09A
:100C1000ECE0F6E00C9449126C01B62EA42EC22F23
:100C2000902ED1E0D21BF22EF194FF0CE02E042F77
:100C3000262F4C2F60E04ADF10E01C1798F4D7FDF8
:100C400004C0C150F394F394DF0D1F5F912F990FEF
:100C50009F5FD90FE92C0A2D2B2D4C2F612FC60138
:100C600035DFEBCFCDB7DEB7EBE00C946512A0E03B
:100C7000B0E0EDE3F6E00C944D12EC01162FF42EEB
:100C8000E22ED02E91E0920F292F220F491B691BD3
:100C9000022FCE015FD0882331F00D2D2E2D4F2D48
:100CA000612FCE01B3DFCDB7DEB7E7E00C94691258
:100CB000A0E0B0E0EEE5F6E00C9449126C01B62E2F
:100CC000A42EC22F902ED1E0D21BF22EF194FF0C55
:100CD000E02E042F262F4C2F60E042DF10E01C177F
:100CE00098F4D7FD04C0C150F394F394DF0D1F5F57
:100CF000912F990F9F5FD90FE92C0A2D2B2D4C2F87
:100D0000612FC6012DDFEBCFCDB7DEB7EBE00C9442
:100D10006512A0E0B0E0EFE8F6E00C944D12EC01B3
:100D2000162FF42EE22ED02E91E0920F292F220FB3
:100D3000491B691B022FCE010DD0882331F00D2DE8
:100D40002E2D4F2D612FCE01B3DFCDB7DEB7E7E0FB
:100D50000C9469120F93FC010150040F84A996A909
:100D6000941718F0081728F402C0081750F0041759
:100D700040F42150260F83A995A9961720F428172F
:100D800020F480E007C0281720F481E0261710F037
:100D9000F8CF81E00F910895A2E0B0E0E2EDF6E037
:100DA0000C945212860F911D860F911D42E050E067
:100DB000BC01CE0101960E94251489819A81229658
:100DC000E2E00C946E1298E0899F600D1124862F4A
:100DD0000895CF93C82F682F6695669566958EEF18
:100DE00090E0DADFFC014081C77021E030E001C013
:100DF000220FCA95EAF7242B2083CF910895CF9331
:100E0000DF93C82FD62F682F66956695669586EF77
:100E100090E0C2DFFC01C7708FB7D1110BC0F8940E
:100E2000908121E030E001C0220FCA95EAF72095B9
:100E3000292309C0F894908121E030E001C0220FFD
:100E4000CA95EAF7292B20838FBFDF91CF910895B0
:100E5000860F911DFC0183A18F3F09F0BACF089541
:100E6000860F911DFC0183A18F3F11F0642FC7CF26
:100E700008952EE93FE0009729F0F9013197F1F745
:100E80000197F9CF089584E090E00197F1F7089574
:100E900088E290E00197F1F70895A0E0B0E0E3E583
:100EA000F7E00C9449128C01EB01E42E59018AE021
:100EB0004817B1F0E5E14E1355C0CA80DB8040E031
:100EC000C8010E94401041E0BE01C8010E942010EC
:100ED000F601F280C680D78088E0982E9F0C0BC068
:100EE00043E0C8010E94161046E051E0BE01C8016F
:100EF0000E945C1037C040E0BE01C8010E94401053
:100F00004EE3BE01C8010E944A10FFE1FF1540F008
:100F10004F2D4068BE01C8010E944A1040E808C039
:100F200040EE4F0D4068BE01C8010E944A1048E8DB
:100F3000BE01C8010E944A1041E0BE01C8010E94E2
:100F40004010960140E1BE01C8010E94541080E1AA
:100F5000C80ED11CF394F910CECF40E0BE01C801F9
:100F60000E94201095014E2DBE01C80122D4CDB79C
:100F7000DEB7EBE00C946512FC01E60FF11D8491E5
:100F800090E0982F88273196E4918E0F911D089557
:100F9000FC0184910895FCDF882321F0823011F058
:100FA00083E0089586E0089580E0089566E0E4CF48
:100FB00068E0E2CF0A96FC01849108950B96FC014B
:100FC00084910895A0E0B0E0E8EEF7E00C944B12B5
:100FD0008C01E62EDC011496CD91DC911597CE01A3
:100FE000D7DFF82EF80184819581D5DFC82EF1E096
:100FF000FF1203C02FE0B22E02C0BB24BA94D80166
:1010000014968D919C911597D5DFF82EF801848167
:101010009581D4DFD82ED80114968D919C91159787
:10102000C7DFB0E6BE1538F4009729F0C80FD91F06
:1010300091E6F92E0FC0F80184819581B7DFF0E4C5
:10104000FE1538F4009729F0C80FD91F81E4F82E57
:1010500001C06196DE1490F4D80150961C9250970E
:1010600053961C92539754961C92549751961C92E7
:10107000519752961C9280E090E066C0DF1460F3B6
:101080008C2D90E0FE0124912F3F11F4219657C042
:10109000FE104CC0D80114968D919C91159778DF65
:1010A0009E012F5F3F4FFE01882311F08230E1F453
:1010B0008491D80153968C935397F90124915496B7
:1010C0002C935497FE013396E4915096EC935097ED
:1010D000FE013496E4915196EC935197FE013596BA
:1010E000E4915296EC9320C08491982F9F70925077
:1010F000D80152969C93529782958F7051968C93FB
:101100005197F9012491822F8F7054968C935497A4
:1011100022952F7053962C935397FE013296E491AB
:10112000E295EF705096EC93CE010EC0FE01329620
:10113000E491EB219C012E0F311DC20FD31FFD1432
:1011400009F48ACFF3949ECFCDB7DEB7E9E00C94D3
:1011500067124F925F926F927F929F92AF92BF926F
:10116000CF92DF92EF92FF920F931F93CF93DF9373
:101170001F92CDB7DEB72C01C62E942E622F22DF30
:101180007C01892B09F43AC0F2018481958103DF47
:10119000B82EF201138904898189C80E8289981AB0
:1011A000D92CD01A212F4D2D6C2DC201D3DD8823CF
:1011B00011F1EB0CF11C195F169516951695612E21
:1011C000712CD914C1F03C2D57018A2D8E1981172D
:1011D00070F4F501049120E04D2D632FC201398395
:1011E00061D2FFEFAF1ABF0A3981385FEECFE60C4C
:1011F000F71CD394E6CFF201808901C080E00F9004
:10120000DF91CF911F910F91FF90EF90DF90CF90E2
:10121000BF90AF909F907F906F905F904F90089598
:10122000AF92BF92DF92EF92FF920F931F93CF93F3
:10123000DF9300D0CDB7DEB77C01D62E042FDC01C2
:101240005596ED91FC91569729833A830995080F9D
:101250002981A22E3A81B32E10E0F50121915F0180
:10126000222339F0402F6D2DC70173DFD80E180FE0
:10127000F4CF812F0F900F90DF91CF911F910F919D
:10128000FF90EF90DF90BF90AF900895DC0114962F
:101290002D913C9115972115310509F43FC05796C2
:1012A0008C915797F901811108C03596E4915896B1
:1012B000EC935897F9013C9611C0813041F43F9668
:1012C000E4915896EC935897F901709607C03D96B3
:1012D000E4915896EC935897F9013E96E49159960B
:1012E000EC93599758968C915897082E000C990BAF
:1012F00059962C915997821B910927FD93955A96DF
:101300002C915A97203441F0829FC001112426E08D
:10131000969587952A95E1F75B968C93089524ED31
:1013200037E0FC01368B258B0895CF93DF93FC01CA
:10133000248135812617370741F0EC0175836483DA
:10134000A5DF84ED97E09E8B8D8BDF91CF91089583
:10135000A0E0B0E0EEEAF9E00C944A125C01C62F7E
:10136000142FD22F261718F4F62EF21A02C0F22EDE
:10137000F61A011770F4E12EE01AFE14F0F48F2D26
:10138000FE2CE82E812F1D2FD82F8C2FC02F082F39
:101390000DC0E02EE11AFE1480F58F2DFE2CE82EF4
:1013A0008D2FD02F082F8C2FC12F182FCC24C39412
:1013B000DF2CD694101750F029C0DC1748F5DF2C2D
:1013C000D694102F8C2FCD2FD82FC12C01E0DF3FCA
:1013D00071F4DEEF0CC0C1100DC0412F6C2FC501A0
:1013E0005AD1DE18D7FE02C0100FDF0CCF5FDC171A
:1013F00090F710C04C2F612FF2CFDC1748F4DF2C90
:10140000D694102F8C2FCD2FD82FC12C0FEFDFCFDC
:10141000C12CCECFCDB7DEB7EAE00C9466121F9395
:10142000CF93DF93EC011D821C821F821E821986DE
:1014300081E0888782E28A871F861E86FE01B39636
:10144000CE01C1962FEF2193E817F907E1F711E0DC
:1014500018A3CE0164DF1F8B188E198E80E48A8F4B
:101460001B8E87E39EE09AAB89ABDF91CF911F91F2
:101470000895DB01ED91FC9109950895EF92FF929B
:101480001F93CF93DF9300D0CDB7DEB77C01DC0193
:10149000D196ED91FC91D29782E069837A83099588
:1014A00020E030E04AE069817A81C701E2DF182F4D
:1014B000D701D196ED91FC91D29783E00995D701A0
:1014C000D196ED91FC91D29780E00995812F0F90F4
:1014D0000F90DF91CF911F91FF90EF9008950F93A0
:1014E0001F93CF93DF93EC018B01E9A9FAA982E066
:1014F0000995E9A9FAA981E0099520E030E044E1E5
:10150000B801CE01B6DF9E012D5C3F4F47E1B80127
:10151000CE01AFDFE9A9FAA980E00995DF91CF916B
:101520001F910F910895EF92FF921F93CF93DF9336
:10153000EC017B01E9A9FAA982E00995E9A9FAA9D8
:1015400081E0099520E030E045E1B701CE0191DF6F
:10155000182F882339F09E012D5C3F4F47E1B701DA
:10156000CE0187DFE9A9FAA980E00995812FDF91F3
:10157000CF911F91FF90EF900895FC01448F258F2C
:101580009C01245E3F4F42E374CFA1E0B0E0EAEC5F
:10159000FAE088C79E012F5F3F4F46E46ADF8981EA
:1015A0002196E2E09BC7A1E0B0E0E8EDFAE07AC75F
:1015B0009E012F5F3F4F47E45CDF89812196E2E087
:1015C0008DC720E030E048E454CFCF93DF93EC01A7
:1015D0006A817B81DADF88836A817B81CE01E3DFE8
:1015E00089836A817B81CE01ECDF8B879E012D5C34
:1015F0003F4F6A817B8147E1CE013BDFDF91CF9195
:101600000895CF93DF93EC016A817B8137DF8823D4
:1016100019F0CE01DADF81E0DF91CF9108958F924A
:101620009F92AF92BF92CF92EF920F93CF93DF939F
:1016300000D0CDB7DEB74C015B012A834983EFDED2
:10164000F401B382A282498147A32A8120A705A37E
:10165000E4A2C3A2C401D5DF0F900F90DF91CF9118
:101660000F91EF90CF90BF90AF909F908F90089583
:10167000FC016281738133CFCF93DF93EC01EE8560
:10168000FF85309709F009956A817B81CE014BDF98
:10169000DF91CF910895362F242FFC016281738151
:1016A000432F6BCF0F93FC0182819381648F458F11
:1016B000278F068F9F01245E3F4F4BE3BC01CF0174
:1016C000D8DE0F9108950F931F93CF93DF93EC0112
:1016D0000E811F819D81969596959695862F877090
:1016E000A0E8B0E002C0B595A7958A95E2F78A8197
:1016F000481B499F402D1124669566956695E62FF7
:10170000F0E0E40FF11DE00FF11F8081222311F0C2
:10171000A82B02C0A095A823A083DF91CF911F9191
:101720000F910895FC01DB0111964C911197828174
:10173000481758F08381841740F06C9185816817B1
:1017400020F4CF0114962C91BECF0895CF92DF9252
:10175000FF920F931F93CF93DF936C01EB01FA80FD
:101760009B81913051F030F0923049F0933051F438
:101770001FEF09C010E001E007C011E004C010E055
:101780000FEF02C010E000E0F7FE03C0BE01C6018B
:10179000C9DF9881900F98839981910F9983FF0CED
:1017A00099F7DF91CF911F910F91FF90DF90CF902C
:1017B00008950F931F93CF93DF938901FB01C2819B
:1017C000D3814233D9F058F44531E1F0473109F182
:1017D000443141F5CE012CD0CE0171D523C0463421
:1017E000E1F04734E1F04B33E9F4B901CE0156D0D2
:1017F0008823C1F0B801CE01A9DF14C0B901CE0120
:1018000091DF10C0CE0162D5882369F0CE0110D0DF
:1018100009C0B901CE0132D005C08D8101C08981D6
:10182000F801808381E0DF91CF911F910F9108959E
:10183000DC011696ED91FC91179715968C919F01FE
:10184000280F311DC9011192E817F907E1F7089532
:10185000FC0191E08381861708F490E031E046179F
:1018600008F030E0832F892B21E05281451708F4DE
:1018700020E02823832F8923822B0895DC01FB019C
:10188000108212968C911297818315968C911597E0
:101890008150828313968C9183830895FB0141814B
:1018A0002381213029F0233031F468EF640F04C024
:1018B000642F485F01C0642FCBCFA0E0B0E0E2E628
:1018C000FCE0EAC57C01D62ED42FC22F122FC42EE5
:1018D000C20E4C2D411B183038F00FEF21E06D2D5A
:1018E000C701E0DE1850F5CF4C2F487F4D0F2C2F4D
:1018F000277079F097E029272F5F27700FEF10E00E
:1019000002C0000F111F2A95E2F721E06D2DC701DB
:10191000C9DECDB7DEB7E8E0DBC5EF92FF920F93EB
:101920001F93CF93DF93EC01162FF42EE22E022F9C
:1019300021E010DA882329F02E2D4F2D612FCE01C2
:10194000BCDFCDB7DEB7E6E0C5C580E008958F9275
:101950009F92BF92CF92DF92EF92FF920F931F93CD
:10196000CF93DF931F92CDB7DEB78C014901FB0106
:10197000E280F380423309F442C048F44C3209F467
:101980003EC04D3209F44DC0473169F007C04634BE
:1019900071F1473479F14B3309F443C09401B70135
:1019A000C80167DD59C047E1B70163DDB701C80170
:1019B000ECDDF401B280B094B80EB701C801E5DDEA
:1019C000F401D080D094D80EB701C801ECDDF40149
:1019D000C380C094C80EB701C801E5DDF401918150
:1019E0009095890FB082C182D282838334C0B701BF
:1019F000CCDD02C0B701D7DDF40180832CC0B70174
:101A0000C8014983D0DDF401D180D094D80EB7014C
:101A1000C801BBDDF40190819095890F8083D1824C
:101A200015C0B701C8014983BEDDF401D180D0944F
:101A3000D80EB701C801A9DDF40190819095890FF6
:101A40008083D18283818E5F8370838394014981F7
:101A5000B701C8010EDD81E00F90DF91CF911F919A
:101A60000F91FF90EF90DF90CF90BF909F908F905D
:101A70000895FC0122813381F1E02F363F0749F0C0
:101A800030937201209371012FE631E0FC01338322
:101A9000228327EA3CE03093700120936F0195CDBB
:101AA000A1E0B0E0E5E5FDE0F1C48C013901FB0106
:101AB000E280F3804B3309F44DC028F44731A9F09C
:101AC000423321F104C0463439F0473441F09301E8
:101AD000B701C801CEDCA2C0B70157DD02C0B70113
:101AE00062DD8695F301808398C047E1B701C1DCD0
:101AF000F3018081869580838281869582838181AE
:101B00008695818383818695838387C0F901C08010
:101B1000CC0CD180DD0CC082D18242E3B701A9DCBC
:101B2000BB24B394BC0CF301B082D182930142E395
:101B3000B701C8019EDCD394F301B082D182930136
:101B400042E3B701C80195DCF301C082D182930161
:101B500042E360C0F9019281C38088E0A12CB12CDE
:101B6000AA0CBB1CAA0CBB1C97FF02C0F3E0AF2A57
:101B7000990F8150A9F7F301D080DD0C5181550FE9
:101B8000C0FE05C0882483948D0C952E04C0992432
:101B90009394950E8D2CF301B282D08251839301E0
:101BA0004BE3B701C801598364DCF3018082918261
:101BB000C38293014BE3B701C8015BDCF301A2824E
:101BC0005981F1E0CF1681F0CF1650F022E0C21615
:101BD00079F083E0C8120FC0585088EF980E0BC000
:101BE000E8E0DE0E8E0E07C0585FF8E09F0E03C0DF
:101BF00028EFD20E820EF301D0825183C38293016B
:101C00004BE3B701C80135DCF30180829182C382C6
:101C100093014BE3B701C8012CDC81E02196EEE093
:101C200051C4FC01228133812557314041F4209178
:101C3000770130917801FC0133832283C6CC08956B
:101C4000FC0122813381F1E025373F0749F03093D1
:101C500078012093770125E731E0FC01338322836B
:101C600020E53DE03093760120937501AECC0895D8
:101C70008F929F92AF92BF92CF92DF92FF920F937B
:101C80001F93CF93DF9300D0CDB7DEB7182FF62E7A
:101C900080ED49835A8336D3812F80D385E38A959B
:101CA000F1F7000081ED2ED34981842E5A81952EC3
:101CB000CF2CD12C00E010E05601E1E0AE1AB108C3
:101CC0000C151D0571F00A151B0511F4A0D301C0F8
:101CD00085D3F40180830F5F1F4FFFEF8F1A9F0A98
:101CE000EFCF4DD38F2D0F900F90DF91CF911F919C
:101CF0000F91FF90DF90CF90BF90AF909F908F900B
:101D00000895A2E0B0E0E6E8FEE0C8C3082F162F71
:101D100080ED49835A83F6D2802F40D34981042F26
:101D2000E42E5A81F52E8E2D801B811728F4F701A1
:101D300081917F0133D3F7CF22D32296E6E0CAC345
:101D4000662309F095CF80E00895AB0161E090CF64
:101D5000A1E0B0E0EDEAFEE0A5C36983AE014F5F0C
:101D60005F4F61E0CEDF2196E2E0B8C3A2E0B0E0D1
:101D7000EBEBFEE094C3082F162FF42E1982BE0160
:101D80006F5F7F4F2A83E1DF2A81882301F1E12FF2
:101D9000F0E0EF19F109319641E050E002C0440F44
:101DA000551FFA94E2F7415051090E2E01C0440F1D
:101DB0000A94EAF701C0220FEA95EAF7642F6095CA
:101DC000898168234223642B6983802FC1DF229697
:101DD000E5E081C3A2E0B0E0EFEEFEE061C3182FC2
:101DE000062FBE016F5F7F4F4A83AFDF99814A8123
:101DF000442349F061E070E0002E01C0660F0A94B0
:101E0000EAF7692B09C021E030E0B90101C0660F93
:101E10000A95EAF7609569236983812F99DF2296F5
:101E2000E4E05AC340E066E08BE6D4CF65D225E318
:101E30002A95F1F700008FEF91EE24E08150904059
:101E40002040E1F700C00000EDDF8FE39CE901973F
:101E5000F1F700C0000021E043E062E08BE686DF9E
:101E600023E043E062E08AE181DF64E089E170DF42
:101E700023E042E064E08BE179DF20E042E064E0CF
:101E80008CE174CFA0E0B0E0E7E4FFE001C35C01C7
:101E90004B016A01E90149E852E06EE08BE350DF53
:101EA000E9E8F2E02081818190E0922BD5018D93C9
:101EB0009C932281838190E0922BD4018D939C93FB
:101EC0002481858190E0922BD6018D939C9320856F
:101ED000818590E0922B998388832285838590E089
:101EE000922BD8018D939C932485858590E0922B2D
:101EF000F70191838083CDB7DEB7ECE0E5C2ACE0BB
:101F0000B0E0E4E8FFE0BEC23C014B015A016901C8
:101F1000280117011C861B861A86198618861F82BF
:101F20001E821D821C821B821A821982CE0101969A
:101F30007C018E010D5F1F4F9E012B5F3F4FAE0155
:101F4000495F5F4FBE01675F7F4F0A969BDF6B85DE
:101F50007C85072E000C880B990B88D320E030E09D
:101F600040E858E30FD4F301608371838283938345
:101F700069857A85072E000C880B990B77D320E0B2
:101F800030E040E858E3FED3F4016083718382833C
:101F900093836F817885072E000C880B990B66D38D
:101FA00020E030E040E858E3EDD3F5016083718331
:101FB000828393836D817E81665D7F4F072E000C47
:101FC000880B990B53D323E333E343E851E4B3D2B3
:101FD000F60160837183828393836B817C81695076
:101FE0007109072E000C880B990B40D323E333E3D0
:101FF00043E851E4A0D2F20160837183828393832A
:1020000069817A81635E7F4F072E000C880B990BE4
:102010002DD323E333E343E851E48DD2F101608310
:102020007183828393832C96E2E148C2DB0114968C
:10203000ED91FC91159720E030E061E0099508955D
:10204000DB011496ED91FC91159720E030E063E000
:1020500009950895DB011496ED91FC91159720E008
:1020600030E040E064E009950895DB011496ED91BD
:10207000FC91159720E030E041E064E00995089577
:10208000DB011496ED91FC91159720E030E062E0C1
:1020900009950895DB011496ED91FC91159720E0C8
:1020A00030E065E009950895DB011496ED91FC910F
:1020B000159766E009950895A0E0B0E0E1E6F0E14B
:1020C000EBC18C017B016A0180E0F601C4918111B2
:1020D00009C0CF3FC1F14C2FB701C801DBDF81112F
:1020E0002BC036C0CF3F11F44FEFF6CFCE3F91F16A
:1020F000C03F10F5C03E30F04C2F4F70B701C80103
:10210000BFDF1AC0C03D30F04C2F4F70B701C8017F
:1021100097DF12C0C03C90F0B701C8019BDFC295A9
:10212000C07FCE5FD0E0CE010E943907B701C80161
:102130009CDFCE010E94390780E006C0C7FDFCCFBE
:102140008C2F90E0F7CF81E0FFEFCF1ADF0ABDCFF1
:1021500080E001C081E0CDB7DEB7E8E0B9C10F9300
:102160001F93CF93DF938C01D62FC8E04D2F40787B
:1021700065E0C8010E943007DD0F41E064E0C8015E
:102180000E9430070E94430740E064E0C8010E94BB
:1021900030070E944307C15049F7DF91CF911F914B
:1021A0000F9108951F93CF93DF93EC01142F6111CA
:1021B00002C068EF03C0613019F46AEFCE01CFDFCF
:1021C000612F607FCE01CBDF612F6295607FCE01F2
:1021D000C6DF0E9448070E9448070E9448070E94E5
:1021E0004807DF91CF911F910895EF92FF920F93CF
:1021F0001F93CF93DF93EC01142F7901862F90E08A
:10220000FC013197E730F10508F054C0EC5CFF4F5A
:1022100033C102E042C002E035C064E0CE010E945A
:10222000280765E0CE010E94280762E0CE010E94E7
:10223000280760E0CE010E94280740E064E0CE015C
:102240000E94300740E065E0CE010E94300740E088
:1022500062E0CE010E9430071EA22CC060E006C0E2
:102260004EA328C0411106C040E062E0CE010E94AA
:10227000300720C041E0F9CF6EA1CE0193DF82E0AC
:102280008EA318C01123B1F0F70141917F016EA117
:10229000CE0188DF0EA31150F5CF112359F0F701BD
:1022A00044916EA1CE017EDF0EA3FFEFEF1AFF0A6D
:1022B0001150F3CF81E0CDB7DEB7E6E00BC1FC01F2
:1022C000128280818150838314820895FC01808171
:1022D0009281980F92832181921760F494819F5F7D
:1022E00094839381890F821710F08FEF820F83837D
:1022F00081E0089580E008951092B9008CE0809309
:10230000B800089594EA9093BC004FEF50E060E06D
:1023100070E09091BC0097FD06C0415051096109E1
:102320007109B8F706C0452B462B472B11F481E005
:1023300008959091B900987F983011F09031B9F7D5
:102340008093BB0084E88093BC008FEF90E0A0E016
:10235000B0E02091BC0027FD05C00197A109B1099B
:10236000C0F704C0892B8A2B8B2B09F38091B9000D
:10237000887F883111F08034D1F680E0089584E9B7
:102380008093BC0080E090E02091BC0024FF05C059
:102390000196811521E09207B9F708958093BB005B
:1023A00084E88093BC008FEF90E0A0E0B0E0209143
:1023B000BC0027FD05C00197A109B109C0F704C001
:1023C000892B8A2B8B2B41F09091B900987F81E06B
:1023D000983219F480E0089581E0089584EC8093A8
:1023E000BC008FEF90E0A0E0B0E02091BC0027FDA2
:1023F00005C00197A109B109C0F704C0892B8A2B38
:102400008B2B19F08091BB00089580E0089584E83B
:102410008093BC008FEF90E0A0E0B0E02091BC0082
:1024200027FD05C00197A109B109C0F704C0892B98
:102430008A2B8B2B19F08091BB00089580E00895C2
:10244000052E97FB16F400940FD057FD05D051D000
:1024500007FC02D046F408C0509540953095219570
:102460003F4F4F4F5F4F08959095809570956195C0
:102470007F4F8F4F9F4F0895EE0FFF1F0590F491F0
:10248000E02D09942F923F924F925F926F927F922C
:102490008F929F92AF92BF92CF92DF92EF92FF9274
:1024A0000F931F93CF93DF93CDB7DEB7CA1BDB0B20
:1024B0000FB6F894DEBF0FBECDBF09942A883988C5
:1024C00048885F846E847D848C849B84AA84B984CC
:1024D000C884DF80EE80FD800C811B81AA81B981D8
:1024E000CE0FD11D0FB6F894DEBF0FBECDBFED01EC
:1024F0000895A1E21A2EAA1BBB1BFD010DC0AA1F45
:10250000BB1FEE1FFF1FA217B307E407F50720F05C
:10251000A21BB30BE40BF50B661F771F881F991FD7
:102520001A9469F760957095809590959B01AC0120
:10253000BD01CF0108950CD0EBC0E3D040F0DAD05C
:1025400030F021F45F3F19F0CCC0511115C1CFC05C
:10255000F0D098F39923C9F35523B1F3951B550B8C
:10256000BB27AA2762177307840738F09F5F5F4F66
:10257000220F331F441FAA1FA9F333D00E2E3AF0A7
:10258000E0E830D091505040E695001CCAF729D0C1
:10259000FE2F27D0660F771F881FBB1F2617370710
:1025A0004807AB07B0E809F0BB0B802DBF01FF2740
:1025B00093585F4F2AF09E3F510568F092C0DCC0EF
:1025C0005F3FECF3983EDCF3869577956795B7957A
:1025D000F7959F5FC9F7880F911D9695879597F995
:1025E0000895E1E0660F771F881FBB1F621773070E
:1025F0008407BA0720F0621B730B840BBA0BEE1F23
:1026000088F7E095089504D06894B111B5C0089595
:1026100098D088F09F5790F0B92F9927B751A0F024
:10262000D1F0660F771F881F991F1AF0BA95C9F766
:1026300012C0B13081F09FD0B1E008959CC0672FE7
:10264000782F8827B85F39F0B93FCCF38695779516
:102650006795B395D9F73EF49095809570956195FF
:102660007F4F8F4F9F4F0895E89409C097FB3EF42A
:1026700090958095709561957F4F8F4F9F4F9923CF
:10268000A9F0F92F96E9BB279395F695879577954D
:102690006795B795F111F8CFFAF4BB0F11F460FF0D
:1026A0001BC06F5F7F4F8F4F9F4F16C0882311F065
:1026B00096E911C0772321F09EE8872F762F05C079
:1026C000662371F096E8862F70E060E02AF09A9514
:1026D000660F771F881FDAF7880F9695879597F909
:1026E000089597F99F6780E870E060E008959FEF94
:1026F00080EC089500240A94161617061806090699
:10270000089500240A941216130614060506089567
:10271000092E0394000C11F4882352F0BB0F40F4EF
:10272000BF2B11F460FF04C06F5F7F4F8F4F9F4F2F
:10273000089557FD9058440F551F59F05F3F71F0B1
:102740004795880F97FB991F61F09F3F79F0879518
:102750000895121613061406551FF2CF4695F1DFA1
:1027600008C0161617061806991FF1CF8695710531
:10277000610508940895E894BB2766277727CB0165
:1027800097F908950BD0C4CFB5DF28F0BADF18F061
:10279000952309F0A6CFABCF1124EECFCADFA0F36B
:1027A000959FD1F3950F50E0551F629FF001729FE6
:1027B000BB27F00DB11D639FAA27F00DB11DAA1F05
:1027C000649F6627B00DA11D661F829F2227B00D52
:1027D000A11D621F739FB00DA11D621F839FA00DDD
:1027E000611D221F749F3327A00D611D231F849F2D
:1027F000600D211D822F762F6A2F11249F57504084
:102800008AF0E1F088234AF0EE0FFF1FBB1F661F1E
:10281000771F881F91505040A9F79E3F510570F0D7
:1028200060CFAACF5F3FECF3983EDCF386957795B7
:102830006795B795F795E7959F5FC1F7FE2B880FD2
:10284000911D9695879597F90895FB01DC0102C0CB
:1028500005900D9241505040D8F70895F894FFCF5D
:10286000040004000106000A0006001D001D0016F9
:10287000001E0016002B00310034003B003B0023FB
:10288000004B00700078006400500025000A005CD6
:1028900000790007000F007800060126014A015D5B
:1028A000018801B801EE010B02110022002C003654
:1028B000005A007F0058007F000000190000001936
:1028C000004D076701F510084000000080CE01A50B
:1028D0000C00000000500D00000000507265737382
:1028E00020627574746F6E20746F207374617274DB
:1028F00020005465657465720042414C4C00596F6C
:10290000752077696E21005072657373206275744B
:10291000746F6E20746F20706C61790061676169FB
:022920006E0047
:00000001FF
